{
  "_format": "hh-sol-artifact-1",
  "contractName": "GFALMarketplace",
  "sourceName": "contracts/GFALMarketplace.sol",
  "abi": [
    {
      "inputs": [
        {
          "internalType": "address",
          "name": "_oracleConsumer",
          "type": "address"
        },
        {
          "internalType": "address",
          "name": "_gfalToken",
          "type": "address"
        },
        {
          "internalType": "address",
          "name": "_royaltiesCollector",
          "type": "address"
        },
        {
          "internalType": "uint256",
          "name": "_royaltiesInBasisPoints",
          "type": "uint256"
        }
      ],
      "stateMutability": "nonpayable",
      "type": "constructor"
    },
    {
      "anonymous": false,
      "inputs": [
        {
          "indexed": false,
          "internalType": "address",
          "name": "collection",
          "type": "address"
        },
        {
          "indexed": false,
          "internalType": "uint256",
          "name": "tokenId",
          "type": "uint256"
        },
        {
          "indexed": false,
          "internalType": "uint256",
          "name": "price",
          "type": "uint256"
        },
        {
          "indexed": false,
          "internalType": "uint256",
          "name": "sellerRevenue",
          "type": "uint256"
        },
        {
          "indexed": false,
          "internalType": "uint256",
          "name": "royalties",
          "type": "uint256"
        },
        {
          "indexed": false,
          "internalType": "address",
          "name": "seller",
          "type": "address"
        },
        {
          "indexed": false,
          "internalType": "address",
          "name": "buyer",
          "type": "address"
        }
      ],
      "name": "BuyToken",
      "type": "event"
    },
    {
      "anonymous": false,
      "inputs": [
        {
          "indexed": true,
          "internalType": "address",
          "name": "previousOwner",
          "type": "address"
        },
        {
          "indexed": true,
          "internalType": "address",
          "name": "newOwner",
          "type": "address"
        }
      ],
      "name": "OwnershipTransferred",
      "type": "event"
    },
    {
      "anonymous": false,
      "inputs": [
        {
          "indexed": false,
          "internalType": "address",
          "name": "collection",
          "type": "address"
        },
        {
          "indexed": false,
          "internalType": "uint256",
          "name": "tokenId",
          "type": "uint256"
        },
        {
          "indexed": false,
          "internalType": "address",
          "name": "seller",
          "type": "address"
        }
      ],
      "name": "RemoveToken",
      "type": "event"
    },
    {
      "anonymous": false,
      "inputs": [
        {
          "indexed": false,
          "internalType": "address",
          "name": "collection",
          "type": "address"
        },
        {
          "indexed": false,
          "internalType": "uint256",
          "name": "tokenId",
          "type": "uint256"
        },
        {
          "indexed": false,
          "internalType": "uint256",
          "name": "price",
          "type": "uint256"
        },
        {
          "indexed": false,
          "internalType": "bool",
          "name": "isDollar",
          "type": "bool"
        },
        {
          "indexed": false,
          "internalType": "address",
          "name": "seller",
          "type": "address"
        }
      ],
      "name": "SellToken",
      "type": "event"
    },
    {
      "inputs": [
        {
          "internalType": "address",
          "name": "contractAddress",
          "type": "address"
        },
        {
          "internalType": "uint256",
          "name": "tokenId",
          "type": "uint256"
        },
        {
          "internalType": "address",
          "name": "seller",
          "type": "address"
        }
      ],
      "name": "buyToken",
      "outputs": [],
      "stateMutability": "nonpayable",
      "type": "function"
    },
    {
      "inputs": [
        {
          "internalType": "address",
          "name": "contractAddress",
          "type": "address"
        },
        {
          "internalType": "address",
          "name": "seller",
          "type": "address"
        },
        {
          "internalType": "uint256",
          "name": "start",
          "type": "uint256"
        },
        {
          "internalType": "uint256",
          "name": "end",
          "type": "uint256"
        }
      ],
      "name": "getOnSaleTokenIds",
      "outputs": [
        {
          "internalType": "uint256[]",
          "name": "tokenIds",
          "type": "uint256[]"
        },
        {
          "internalType": "address[]",
          "name": "sellers",
          "type": "address[]"
        },
        {
          "internalType": "uint256[]",
          "name": "prices",
          "type": "uint256[]"
        }
      ],
      "stateMutability": "view",
      "type": "function"
    },
    {
      "inputs": [],
      "name": "getSellersList",
      "outputs": [
        {
          "internalType": "address[]",
          "name": "",
          "type": "address[]"
        }
      ],
      "stateMutability": "view",
      "type": "function"
    },
    {
      "inputs": [],
      "name": "gfalToken",
      "outputs": [
        {
          "internalType": "address",
          "name": "",
          "type": "address"
        }
      ],
      "stateMutability": "view",
      "type": "function"
    },
    {
      "inputs": [
        {
          "internalType": "address",
          "name": "",
          "type": "address"
        }
      ],
      "name": "knownSellers",
      "outputs": [
        {
          "internalType": "bool",
          "name": "",
          "type": "bool"
        }
      ],
      "stateMutability": "view",
      "type": "function"
    },
    {
      "inputs": [],
      "name": "oracleConsumer",
      "outputs": [
        {
          "internalType": "contract OracleConsumer",
          "name": "",
          "type": "address"
        }
      ],
      "stateMutability": "view",
      "type": "function"
    },
    {
      "inputs": [],
      "name": "owner",
      "outputs": [
        {
          "internalType": "address",
          "name": "",
          "type": "address"
        }
      ],
      "stateMutability": "view",
      "type": "function"
    },
    {
      "inputs": [
        {
          "internalType": "address",
          "name": "contractAddress",
          "type": "address"
        },
        {
          "internalType": "uint256",
          "name": "tokenId",
          "type": "uint256"
        }
      ],
      "name": "removeToken",
      "outputs": [],
      "stateMutability": "nonpayable",
      "type": "function"
    },
    {
      "inputs": [],
      "name": "renounceOwnership",
      "outputs": [],
      "stateMutability": "nonpayable",
      "type": "function"
    },
    {
      "inputs": [],
      "name": "royaltiesCollector",
      "outputs": [
        {
          "internalType": "address",
          "name": "",
          "type": "address"
        }
      ],
      "stateMutability": "view",
      "type": "function"
    },
    {
      "inputs": [],
      "name": "royaltiesInBasisPoints",
      "outputs": [
        {
          "internalType": "uint256",
          "name": "",
          "type": "uint256"
        }
      ],
      "stateMutability": "view",
      "type": "function"
    },
    {
      "inputs": [
        {
          "internalType": "address",
          "name": "contractAddress",
          "type": "address"
        },
        {
          "internalType": "uint256",
          "name": "tokenId",
          "type": "uint256"
        },
        {
          "internalType": "uint256",
          "name": "price",
          "type": "uint256"
        },
        {
          "internalType": "bool",
          "name": "isDollar",
          "type": "bool"
        }
      ],
      "name": "sellToken",
      "outputs": [],
      "stateMutability": "nonpayable",
      "type": "function"
    },
    {
      "inputs": [
        {
          "internalType": "uint256",
          "name": "",
          "type": "uint256"
        }
      ],
      "name": "sellersList",
      "outputs": [
        {
          "internalType": "address",
          "name": "",
          "type": "address"
        }
      ],
      "stateMutability": "view",
      "type": "function"
    },
    {
      "inputs": [
        {
          "internalType": "address",
          "name": "",
          "type": "address"
        },
        {
          "internalType": "uint256",
          "name": "",
          "type": "uint256"
        },
        {
          "internalType": "address",
          "name": "",
          "type": "address"
        }
      ],
      "name": "tokensForSale",
      "outputs": [
        {
          "internalType": "uint256",
          "name": "price",
          "type": "uint256"
        },
        {
          "internalType": "bool",
          "name": "isDollar",
          "type": "bool"
        },
        {
          "internalType": "bool",
          "name": "isForSale",
          "type": "bool"
        }
      ],
      "stateMutability": "view",
      "type": "function"
    },
    {
      "inputs": [
        {
          "internalType": "address",
          "name": "newOwner",
          "type": "address"
        }
      ],
      "name": "transferOwnership",
      "outputs": [],
      "stateMutability": "nonpayable",
      "type": "function"
    },
    {
      "inputs": [
        {
          "internalType": "address",
          "name": "_collectionAddress",
          "type": "address"
        },
        {
          "internalType": "enum GFALMarketplace.TokenStandard",
          "name": "_tokenStandard",
          "type": "uint8"
        },
        {
          "internalType": "bool",
          "name": "_allowed",
          "type": "bool"
        }
      ],
      "name": "updateCollection",
      "outputs": [],
      "stateMutability": "nonpayable",
      "type": "function"
    },
    {
      "inputs": [
        {
          "internalType": "address",
          "name": "_gfalToken",
          "type": "address"
        }
      ],
      "name": "updateGFALToken",
      "outputs": [],
      "stateMutability": "nonpayable",
      "type": "function"
    },
    {
      "inputs": [
        {
          "internalType": "address",
          "name": "_oracleConsumer",
          "type": "address"
        }
      ],
      "name": "updateOracleConsumer",
      "outputs": [],
      "stateMutability": "nonpayable",
      "type": "function"
    },
    {
      "inputs": [
        {
          "internalType": "uint256",
          "name": "_royaltiesInBasisPoints",
          "type": "uint256"
        }
      ],
      "name": "updateRoyaltiesInBasisPoints",
      "outputs": [],
      "stateMutability": "nonpayable",
      "type": "function"
    },
    {
      "inputs": [],
      "name": "volume",
      "outputs": [
        {
          "internalType": "uint256",
          "name": "",
          "type": "uint256"
        }
      ],
      "stateMutability": "view",
      "type": "function"
    },
    {
      "inputs": [
        {
          "internalType": "address",
          "name": "",
          "type": "address"
        }
      ],
      "name": "whitelistNFTs",
      "outputs": [
        {
          "internalType": "bool",
          "name": "allowed",
          "type": "bool"
        },
        {
          "internalType": "enum GFALMarketplace.TokenStandard",
          "name": "tokenStandard",
          "type": "uint8"
        }
      ],
      "stateMutability": "view",
      "type": "function"
    }
  ],
  "bytecode": "0x60806040523480156200001157600080fd5b5060405162001fbc38038062001fbc8339810160408190526200003491620000f6565b6200003f3362000089565b60018055600280546001600160a01b03199081166001600160a01b039687161790915560038054821694861694909417909355600a80549093169190931617905560095562000148565b600080546001600160a01b038381166001600160a01b0319831681178455604051919092169283917f8be0079c531659141344cd1fd0a4f28419497f9722a3daafe3b4186f6b6457e09190a35050565b80516001600160a01b0381168114620000f157600080fd5b919050565b600080600080608085870312156200010d57600080fd5b6200011885620000d9565b93506200012860208601620000d9565b92506200013860408601620000d9565b6060959095015193969295505050565b611e6480620001586000396000f3fe608060405234801561001057600080fd5b50600436106101375760003560e01c8063692bf4a8116100b857806383384afc1161007c57806383384afc1461031b5780638da5cb5b1461032e578063ade3e2d11461033f578063c618a1e414610352578063c7d6a1371461035b578063f2fde38b1461036e57600080fd5b8063692bf4a8146102a05780636abbfa76146102b35780636c84dd81146102c65780636e3e03a8146102d9578063715018a61461031357600080fd5b806354ca5100116100ff57806354ca5100146101c0578063588b6938146101f35780635bafa3af1461020a578063649e19341461026b578063655f79d21461028d57600080fd5b806307c8ea8a1461013c57806313baf1e61461015a5780631b4338441461016f5780632f228e9f1461019a57806351babf0c146101ad575b600080fd5b610144610381565b604051610151919061193a565b60405180910390f35b61016d610168366004611962565b6103e3565b005b600a54610182906001600160a01b031681565b6040516001600160a01b039091168152602001610151565b61016d6101a836600461199c565b610676565b61016d6101bb3660046119eb565b610708565b6101e36101ce366004611a35565b60076020526000908152604090205460ff1681565b6040519015158152602001610151565b6101fc60095481565b604051908152602001610151565b61024e610218366004611a59565b60056020908152600093845260408085208252928452828420905282529020805460019091015460ff8082169161010090041683565b604080519384529115156020840152151590820152606001610151565b61027e610279366004611a90565b610c71565b60405161015193929190611b06565b61016d61029b366004611b49565b610f42565b61016d6102ae366004611a59565b610f4f565b61016d6102c1366004611a35565b6113c2565b600254610182906001600160a01b031681565b6103056102e7366004611a35565b60046020526000908152604090205460ff8082169161010090041682565b604051610151929190611b78565b61016d6113ec565b61016d610329366004611a35565b611400565b6000546001600160a01b0316610182565b600354610182906001600160a01b031681565b6101fc60085481565b610182610369366004611b49565b61142a565b61016d61037c366004611a35565b611454565b606060068054806020026020016040519081016040528092919081815260200182805480156103d957602002820191906000526020600020905b81546001600160a01b031681526001909101906020018083116103bb575b5050505050905090565b6001600160a01b03821660009081526004602090815260408083208151808301909252805460ff8082161515845287953395889591949193919290840191610100900416600181111561043857610438611b62565b600181111561044957610449611b62565b9052508051909150151560011461047b5760405162461bcd60e51b815260040161047290611bac565b60405180910390fd5b60008160200151600181111561049357610493611b62565b03610531576040516331a9108f60e11b8152600481018390526001600160a01b038085169190861690636352211e90602401602060405180830381865afa1580156104e2573d6000803e3d6000fd5b505050506040513d601f19601f820116820180604052508101906105069190611c09565b6001600160a01b03161461052c5760405162461bcd60e51b815260040161047290611c26565b6105bd565b604051627eeac760e11b8152336004820152602481018390526001600160a01b0385169062fdd58e90604401602060405180830381865afa15801561057a573d6000803e3d6000fd5b505050506040513d601f19601f8201168201806040525081019061059e9190611c78565b6000036105bd5760405162461bcd60e51b815260040161047290611c91565b6040805160608082018352600080835260208084018281528486018381526001600160a01b038d16808552600584528785208d86528452878520338087529085529488902096518755915160019096018054915161ffff1990921696151561ff00191696909617610100911515919091021790945584519384528301899052928201929092527fc3e81845cf9d9802fe8e058353ce034c229b670ce0fb04a08db41a1ba52a90a0910160405180910390a1505050505050565b61067e6114cd565b604051806040016040528082151581526020018360018111156106a3576106a3611b62565b90526001600160a01b03841660009081526004602090815260409091208251815490151560ff19821681178355928401519192839161ff001990911661ffff19909116176101008360018111156106fc576106fc611b62565b02179055505050505050565b6001600160a01b03841660009081526004602090815260408083208151808301909252805460ff80821615158452899533958a9591949193919290840191610100900416600181111561075d5761075d611b62565b600181111561076e5761076e611b62565b905250805190915015156001146107975760405162461bcd60e51b815260040161047290611bac565b6000816020015160018111156107af576107af611b62565b0361084d576040516331a9108f60e11b8152600481018390526001600160a01b038085169190861690636352211e90602401602060405180830381865afa1580156107fe573d6000803e3d6000fd5b505050506040513d601f19601f820116820180604052508101906108229190611c09565b6001600160a01b0316146108485760405162461bcd60e51b815260040161047290611c26565b6108d9565b604051627eeac760e11b8152336004820152602481018390526001600160a01b0385169062fdd58e90604401602060405180830381865afa158015610896573d6000803e3d6000fd5b505050506040513d601f19601f820116820180604052508101906108ba9190611c78565b6000036108d95760405162461bcd60e51b815260040161047290611c91565b856000036109295760405162461bcd60e51b815260206004820152601a60248201527f43616e6e6f7420707574207a65726f20617320612070726963650000000000006044820152606401610472565b3360009081526007602052604081205460ff16151590036109a157336000818152600760205260408120805460ff191660019081179091556006805491820181559091527ff652222313e28459528d920b65115c16c04f3efc82aaedc97be59f3f377c0d3f0180546001600160a01b03191690911790555b60006001600160a01b038916600090815260046020526040902054610100900460ff1660018111156109d5576109d5611b62565b03610ab45760405163020604bf60e21b81526004810188905230906001600160a01b038a169063081812fc90602401602060405180830381865afa158015610a21573d6000803e3d6000fd5b505050506040513d601f19601f82011682018060405250810190610a459190611c09565b6001600160a01b031614610aaf5760405162461bcd60e51b815260206004820152602b60248201527f4e465420686173206e6f74206265656e20617070726f76656420666f7220737060448201526a32b73234b733901b99189760a91b6064820152608401610472565b610b88565b60405163e985e9c560e01b81523360048201523060248201526001600160a01b0389169063e985e9c590604401602060405180830381865afa158015610afe573d6000803e3d6000fd5b505050506040513d601f19601f82011682018060405250810190610b229190611ce4565b1515600114610b885760405162461bcd60e51b815260206004820152602c60248201527f4e465420686173206e6f74206265656e20617070726f76656420666f7220737060448201526b32b73234b7339018989a9a9760a11b6064820152608401610472565b60408051606081018252878152861515602080830191825260018385018181526001600160a01b038e166000908152600584528681208e8252845286812033808352945286902094518555925193018054925115156101000261ff00199415159490941661ffff199093169290921792909217905590517fb8d5f96ea17c757cda8ecd6cf1b8723b62adf3bffb010688140dfef27cf3062791610c5f918b918b918b918b916001600160a01b0395861681526020810194909452604084019290925215156060830152909116608082015260a00190565b60405180910390a15050505050505050565b6060806060848411610cc55760405162461bcd60e51b815260206004820152601d60248201527f456e64206d75737420626520686967686572207468616e2073746172740000006044820152606401610472565b6000610cd18686611d17565b67ffffffffffffffff811115610ce957610ce9611d2a565b604051908082528060200260200182016040528015610d12578160200160208202803683370190505b5090506000610d218787611d17565b67ffffffffffffffff811115610d3957610d39611d2a565b604051908082528060200260200182016040528015610d62578160200160208202803683370190505b5090506000610d718888611d17565b67ffffffffffffffff811115610d8957610d89611d2a565b604051908082528060200260200182016040528015610db2578160200160208202803683370190505b5090506000885b888111610f31576001600160a01b03808d1660009081526005602090815260408083208584528252808320938f1683529281529082902082516060810184528154815260019091015460ff80821615159383019390935261010090049091161580159282019290925290610f1e5781868481518110610e3a57610e3a611d40565b6020026020010181815250508b858481518110610e5957610e59611d40565b6001600160a01b03909216602092830291909101820152810151610e7e578051610ef3565b6002548151604051630dcb6d6560e31b81526001600160a01b0390921691636e5b6b2891610eb29160040190815260200190565b602060405180830381865afa158015610ecf573d6000803e3d6000fd5b505050506040513d601f19601f82011682018060405250810190610ef39190611c78565b848481518110610f0557610f05611d40565b602090810291909101015282610f1a81611d56565b9350505b5080610f2981611d56565b915050610db9565b50929a919950975095505050505050565b610f4a6114cd565b600955565b610f57611527565b6001600160a01b038084166000908152600560209081526040808320868452825280832093851683529281529082902082516060810184528154815260019091015460ff8082161515938301939093526101009004909116151591810182905290610ffd5760405162461bcd60e51b81526020600482015260166024820152752a37b5b2b71034b9903737ba103337b91039b0b6329760511b6044820152606401610472565b600081602001511515600115151461101657815161108b565b6002548251604051630dcb6d6560e31b81526001600160a01b0390921691636e5b6b289161104a9160040190815260200190565b602060405180830381865afa158015611067573d6000803e3d6000fd5b505050506040513d601f19601f8201168201806040525081019061108b9190611c78565b905060008061109983611580565b600354604051636eb1769f60e11b815233600482015230602482015292945090925084916001600160a01b039091169063dd62ed3e90604401602060405180830381865afa1580156110ef573d6000803e3d6000fd5b505050506040513d601f19601f820116820180604052508101906111139190611c78565b10156111725760405162461bcd60e51b815260206004820152602860248201527f4746414c20686173206e6f74206265656e20617070726f76656420666f7220736044820152673832b73234b7339760c11b6064820152608401610472565b60006001600160a01b038816600090815260046020526040902054610100900460ff1660018111156111a6576111a6611b62565b0361121857604051632142170760e11b81526001600160a01b038681166004830152336024830152604482018890528816906342842e0e90606401600060405180830381600087803b1580156111fb57600080fd5b505af115801561120f573d6000803e3d6000fd5b50505050611296565b604051637921219560e11b81526001600160a01b038681166004830152336024830152604482018890526001606483015260a06084830152600060a483015288169063f242432a9060c401600060405180830381600087803b15801561127d57600080fd5b505af1158015611291573d6000803e3d6000fd5b505050505b6003546112ae906001600160a01b03163387856115b7565b600a546003546112cd916001600160a01b0391821691339116846115b7565b82600860008282546112df9190611d6f565b90915550506040805160608082018352600080835260208084018281528486018381526001600160a01b038e8116808652600585528886208f87528552888620918e168087529185529488902096518755915160019096018054915161ffff1990921696151561ff001916969096176101009115159190910217909455845191825281018a905292830186905282018490526080820183905260a08201523360c08201527f4d9cacb6b73cdf7edbab10a930483278dfed1ccff809d2315cee65d6a867c3489060e00160405180910390a1505050506113bd60018055565b505050565b6113ca6114cd565b600280546001600160a01b0319166001600160a01b0392909216919091179055565b6113f46114cd565b6113fe6000611617565b565b6114086114cd565b600380546001600160a01b0319166001600160a01b0392909216919091179055565b6006818154811061143a57600080fd5b6000918252602090912001546001600160a01b0316905081565b61145c6114cd565b6001600160a01b0381166114c15760405162461bcd60e51b815260206004820152602660248201527f4f776e61626c653a206e6577206f776e657220697320746865207a65726f206160448201526564647265737360d01b6064820152608401610472565b6114ca81611617565b50565b6000546001600160a01b031633146113fe5760405162461bcd60e51b815260206004820181905260248201527f4f776e61626c653a2063616c6c6572206973206e6f7420746865206f776e65726044820152606401610472565b6002600154036115795760405162461bcd60e51b815260206004820152601f60248201527f5265656e7472616e637947756172643a207265656e7472616e742063616c6c006044820152606401610472565b6002600155565b6000806115a461271061159e6009548661166790919063ffffffff16565b9061167c565b90506115b08382611688565b9150915091565b604080516001600160a01b0385811660248301528416604482015260648082018490528251808303909101815260849091019091526020810180516001600160e01b03166323b872dd60e01b179052611611908590611694565b50505050565b600080546001600160a01b038381166001600160a01b0319831681178455604051919092169283917f8be0079c531659141344cd1fd0a4f28419497f9722a3daafe3b4186f6b6457e09190a35050565b60006116738284611d82565b90505b92915050565b60006116738284611d99565b60006116738284611d17565b60006116e9826040518060400160405280602081526020017f5361666545524332303a206c6f772d6c6576656c2063616c6c206661696c6564815250856001600160a01b03166117669092919063ffffffff16565b8051909150156113bd57808060200190518101906117079190611ce4565b6113bd5760405162461bcd60e51b815260206004820152602a60248201527f5361666545524332303a204552433230206f7065726174696f6e20646964206e6044820152691bdd081cdd58d8d9595960b21b6064820152608401610472565b6060611775848460008561177d565b949350505050565b6060824710156117de5760405162461bcd60e51b815260206004820152602660248201527f416464726573733a20696e73756666696369656e742062616c616e636520666f6044820152651c8818d85b1b60d21b6064820152608401610472565b600080866001600160a01b031685876040516117fa9190611ddf565b60006040518083038185875af1925050503d8060008114611837576040519150601f19603f3d011682016040523d82523d6000602084013e61183c565b606091505b509150915061184d87838387611858565b979650505050505050565b606083156118c75782516000036118c0576001600160a01b0385163b6118c05760405162461bcd60e51b815260206004820152601d60248201527f416464726573733a2063616c6c20746f206e6f6e2d636f6e74726163740000006044820152606401610472565b5081611775565b61177583838151156118dc5781518083602001fd5b8060405162461bcd60e51b81526004016104729190611dfb565b600081518084526020808501945080840160005b8381101561192f5781516001600160a01b03168752958201959082019060010161190a565b509495945050505050565b60208152600061167360208301846118f6565b6001600160a01b03811681146114ca57600080fd5b6000806040838503121561197557600080fd5b82356119808161194d565b946020939093013593505050565b80151581146114ca57600080fd5b6000806000606084860312156119b157600080fd5b83356119bc8161194d565b92506020840135600281106119d057600080fd5b915060408401356119e08161198e565b809150509250925092565b60008060008060808587031215611a0157600080fd5b8435611a0c8161194d565b935060208501359250604085013591506060850135611a2a8161198e565b939692955090935050565b600060208284031215611a4757600080fd5b8135611a528161194d565b9392505050565b600080600060608486031215611a6e57600080fd5b8335611a798161194d565b92506020840135915060408401356119e08161194d565b60008060008060808587031215611aa657600080fd5b8435611ab18161194d565b93506020850135611ac18161194d565b93969395505050506040820135916060013590565b600081518084526020808501945080840160005b8381101561192f57815187529582019590820190600101611aea565b606081526000611b196060830186611ad6565b8281036020840152611b2b81866118f6565b90508281036040840152611b3f8185611ad6565b9695505050505050565b600060208284031215611b5b57600080fd5b5035919050565b634e487b7160e01b600052602160045260246000fd5b82151581526040810160028310611b9f57634e487b7160e01b600052602160045260246000fd5b8260208301529392505050565b60208082526037908201527f596f752063616e2073656c6c206f6e6c7920746f6b656e732061626f7574207760408201527f686974656c697374656420636f6c6c656374696f6e732e000000000000000000606082015260800190565b600060208284031215611c1b57600080fd5b8151611a528161194d565b60208082526032908201527f546f6b656e20646f6573206e6f742062656c6f6e6720746f2075736572206f72604082015271103737ba1032bc34b9ba34b733901b99189760711b606082015260800190565b600060208284031215611c8a57600080fd5b5051919050565b60208082526033908201527f546f6b656e20646f6573206e6f742062656c6f6e6720746f2075736572206f72604082015272103737ba1032bc34b9ba34b7339018989a9a9760691b606082015260800190565b600060208284031215611cf657600080fd5b8151611a528161198e565b634e487b7160e01b600052601160045260246000fd5b8181038181111561167657611676611d01565b634e487b7160e01b600052604160045260246000fd5b634e487b7160e01b600052603260045260246000fd5b600060018201611d6857611d68611d01565b5060010190565b8082018082111561167657611676611d01565b808202811582820484141761167657611676611d01565b600082611db657634e487b7160e01b600052601260045260246000fd5b500490565b60005b83811015611dd6578181015183820152602001611dbe565b50506000910152565b60008251611df1818460208701611dbb565b9190910192915050565b6020815260008251806020840152611e1a816040850160208701611dbb565b601f01601f1916919091016040019291505056fea26469706673582212208776a0763dec41f4e476464b7ddf87696c9d58aba03eae9ac6a69e886828770f64736f6c63430008110033",
  "linkReferences": {},
  "deployedLinkReferences": {}
}