{
  "_format": "hh-sol-artifact-1",
  "contractName": "Erc1155MockUp",
  "sourceName": "contracts/_mock/Erc1155MockUp.sol",
  "abi": [
    {
      "inputs": [
        {
          "internalType": "address",
          "name": "_proxy",
          "type": "address"
        },
        {
          "internalType": "string",
          "name": "_uri",
          "type": "string"
        }
      ],
      "stateMutability": "nonpayable",
      "type": "constructor"
    },
    {
      "anonymous": false,
      "inputs": [
        {
          "indexed": true,
          "internalType": "address",
          "name": "account",
          "type": "address"
        },
        {
          "indexed": true,
          "internalType": "address",
          "name": "operator",
          "type": "address"
        },
        {
          "indexed": false,
          "internalType": "bool",
          "name": "approved",
          "type": "bool"
        }
      ],
      "name": "ApprovalForAll",
      "type": "event"
    },
    {
      "anonymous": false,
      "inputs": [
        {
          "indexed": true,
          "internalType": "address",
          "name": "operator",
          "type": "address"
        },
        {
          "indexed": true,
          "internalType": "address",
          "name": "from",
          "type": "address"
        },
        {
          "indexed": true,
          "internalType": "address",
          "name": "to",
          "type": "address"
        },
        {
          "indexed": false,
          "internalType": "uint256[]",
          "name": "ids",
          "type": "uint256[]"
        },
        {
          "indexed": false,
          "internalType": "uint256[]",
          "name": "values",
          "type": "uint256[]"
        }
      ],
      "name": "TransferBatch",
      "type": "event"
    },
    {
      "anonymous": false,
      "inputs": [
        {
          "indexed": true,
          "internalType": "address",
          "name": "operator",
          "type": "address"
        },
        {
          "indexed": true,
          "internalType": "address",
          "name": "from",
          "type": "address"
        },
        {
          "indexed": true,
          "internalType": "address",
          "name": "to",
          "type": "address"
        },
        {
          "indexed": false,
          "internalType": "uint256",
          "name": "id",
          "type": "uint256"
        },
        {
          "indexed": false,
          "internalType": "uint256",
          "name": "value",
          "type": "uint256"
        }
      ],
      "name": "TransferSingle",
      "type": "event"
    },
    {
      "anonymous": false,
      "inputs": [
        {
          "indexed": false,
          "internalType": "string",
          "name": "value",
          "type": "string"
        },
        {
          "indexed": true,
          "internalType": "uint256",
          "name": "id",
          "type": "uint256"
        }
      ],
      "name": "URI",
      "type": "event"
    },
    {
      "inputs": [
        {
          "internalType": "address",
          "name": "account",
          "type": "address"
        },
        {
          "internalType": "uint256",
          "name": "id",
          "type": "uint256"
        }
      ],
      "name": "balanceOf",
      "outputs": [
        {
          "internalType": "uint256",
          "name": "",
          "type": "uint256"
        }
      ],
      "stateMutability": "view",
      "type": "function"
    },
    {
      "inputs": [
        {
          "internalType": "address[]",
          "name": "accounts",
          "type": "address[]"
        },
        {
          "internalType": "uint256[]",
          "name": "ids",
          "type": "uint256[]"
        }
      ],
      "name": "balanceOfBatch",
      "outputs": [
        {
          "internalType": "uint256[]",
          "name": "",
          "type": "uint256[]"
        }
      ],
      "stateMutability": "view",
      "type": "function"
    },
    {
      "inputs": [
        {
          "internalType": "uint256",
          "name": "id",
          "type": "uint256"
        }
      ],
      "name": "exists",
      "outputs": [
        {
          "internalType": "bool",
          "name": "",
          "type": "bool"
        }
      ],
      "stateMutability": "view",
      "type": "function"
    },
    {
      "inputs": [],
      "name": "g4alProxy",
      "outputs": [
        {
          "internalType": "contract G4ALProxy",
          "name": "",
          "type": "address"
        }
      ],
      "stateMutability": "view",
      "type": "function"
    },
    {
      "inputs": [
        {
          "internalType": "address",
          "name": "account",
          "type": "address"
        },
        {
          "internalType": "address",
          "name": "operator",
          "type": "address"
        }
      ],
      "name": "isApprovedForAll",
      "outputs": [
        {
          "internalType": "bool",
          "name": "",
          "type": "bool"
        }
      ],
      "stateMutability": "view",
      "type": "function"
    },
    {
      "inputs": [
        {
          "internalType": "uint256",
          "name": "_amount",
          "type": "uint256"
        }
      ],
      "name": "mint",
      "outputs": [],
      "stateMutability": "nonpayable",
      "type": "function"
    },
    {
      "inputs": [],
      "name": "mintedNFTs",
      "outputs": [
        {
          "internalType": "uint256",
          "name": "",
          "type": "uint256"
        }
      ],
      "stateMutability": "view",
      "type": "function"
    },
    {
      "inputs": [
        {
          "internalType": "address",
          "name": "from",
          "type": "address"
        },
        {
          "internalType": "address",
          "name": "to",
          "type": "address"
        },
        {
          "internalType": "uint256[]",
          "name": "ids",
          "type": "uint256[]"
        },
        {
          "internalType": "uint256[]",
          "name": "amounts",
          "type": "uint256[]"
        },
        {
          "internalType": "bytes",
          "name": "data",
          "type": "bytes"
        }
      ],
      "name": "safeBatchTransferFrom",
      "outputs": [],
      "stateMutability": "nonpayable",
      "type": "function"
    },
    {
      "inputs": [
        {
          "internalType": "address",
          "name": "from",
          "type": "address"
        },
        {
          "internalType": "address",
          "name": "to",
          "type": "address"
        },
        {
          "internalType": "uint256",
          "name": "id",
          "type": "uint256"
        },
        {
          "internalType": "uint256",
          "name": "amount",
          "type": "uint256"
        },
        {
          "internalType": "bytes",
          "name": "data",
          "type": "bytes"
        }
      ],
      "name": "safeTransferFrom",
      "outputs": [],
      "stateMutability": "nonpayable",
      "type": "function"
    },
    {
      "inputs": [
        {
          "internalType": "address",
          "name": "operator",
          "type": "address"
        },
        {
          "internalType": "bool",
          "name": "approved",
          "type": "bool"
        }
      ],
      "name": "setApprovalForAll",
      "outputs": [],
      "stateMutability": "nonpayable",
      "type": "function"
    },
    {
      "inputs": [
        {
          "internalType": "bytes4",
          "name": "interfaceId",
          "type": "bytes4"
        }
      ],
      "name": "supportsInterface",
      "outputs": [
        {
          "internalType": "bool",
          "name": "",
          "type": "bool"
        }
      ],
      "stateMutability": "view",
      "type": "function"
    },
    {
      "inputs": [
        {
          "internalType": "uint256",
          "name": "id",
          "type": "uint256"
        }
      ],
      "name": "totalSupply",
      "outputs": [
        {
          "internalType": "uint256",
          "name": "",
          "type": "uint256"
        }
      ],
      "stateMutability": "view",
      "type": "function"
    },
    {
      "inputs": [
        {
          "internalType": "uint256",
          "name": "",
          "type": "uint256"
        }
      ],
      "name": "uri",
      "outputs": [
        {
          "internalType": "string",
          "name": "",
          "type": "string"
        }
      ],
      "stateMutability": "view",
      "type": "function"
    }
  ],
  "bytecode": "0x60806040523480156200001157600080fd5b50604051620031f1380380620031f18339818101604052810190620000379190620002a0565b8062000049816200009360201b60201c565b5081600560006101000a81548173ffffffffffffffffffffffffffffffffffffffff021916908373ffffffffffffffffffffffffffffffffffffffff160217905550505062000638565b8060029081620000a4919062000551565b5050565b6000604051905090565b600080fd5b600080fd5b600073ffffffffffffffffffffffffffffffffffffffff82169050919050565b6000620000e982620000bc565b9050919050565b620000fb81620000dc565b81146200010757600080fd5b50565b6000815190506200011b81620000f0565b92915050565b600080fd5b600080fd5b6000601f19601f8301169050919050565b7f4e487b7100000000000000000000000000000000000000000000000000000000600052604160045260246000fd5b62000176826200012b565b810181811067ffffffffffffffff821117156200019857620001976200013c565b5b80604052505050565b6000620001ad620000a8565b9050620001bb82826200016b565b919050565b600067ffffffffffffffff821115620001de57620001dd6200013c565b5b620001e9826200012b565b9050602081019050919050565b60005b8381101562000216578082015181840152602081019050620001f9565b60008484015250505050565b6000620002396200023384620001c0565b620001a1565b90508281526020810184848401111562000258576200025762000126565b5b62000265848285620001f6565b509392505050565b600082601f83011262000285576200028462000121565b5b81516200029784826020860162000222565b91505092915050565b60008060408385031215620002ba57620002b9620000b2565b5b6000620002ca858286016200010a565b925050602083015167ffffffffffffffff811115620002ee57620002ed620000b7565b5b620002fc858286016200026d565b9150509250929050565b600081519050919050565b7f4e487b7100000000000000000000000000000000000000000000000000000000600052602260045260246000fd5b600060028204905060018216806200035957607f821691505b6020821081036200036f576200036e62000311565b5b50919050565b60008190508160005260206000209050919050565b60006020601f8301049050919050565b600082821b905092915050565b600060088302620003d97fffffffffffffffffffffffffffffffffffffffffffffffffffffffffffffffff826200039a565b620003e586836200039a565b95508019841693508086168417925050509392505050565b6000819050919050565b6000819050919050565b6000620004326200042c6200042684620003fd565b62000407565b620003fd565b9050919050565b6000819050919050565b6200044e8362000411565b620004666200045d8262000439565b848454620003a7565b825550505050565b600090565b6200047d6200046e565b6200048a81848462000443565b505050565b5b81811015620004b257620004a660008262000473565b60018101905062000490565b5050565b601f8211156200050157620004cb8162000375565b620004d6846200038a565b81016020851015620004e6578190505b620004fe620004f5856200038a565b8301826200048f565b50505b505050565b600082821c905092915050565b6000620005266000198460080262000506565b1980831691505092915050565b600062000541838362000513565b9150826002028217905092915050565b6200055c8262000306565b67ffffffffffffffff8111156200057857620005776200013c565b5b62000584825462000340565b62000591828285620004b6565b600060209050601f831160018114620005c95760008415620005b4578287015190505b620005c0858262000533565b86555062000630565b601f198416620005d98662000375565b60005b828110156200060357848901518255600182019150602085019450602081019050620005dc565b868310156200062357848901516200061f601f89168262000513565b8355505b6001600288020188555050505b505050505050565b612ba980620006486000396000f3fe608060405234801561001057600080fd5b50600436106100ce5760003560e01c80634f558e791161008c578063a22cb46511610066578063a22cb46514610237578063bd85b03914610253578063e985e9c514610283578063f242432a146102b3576100ce565b80634f558e79146101cd57806372f7eb99146101fd578063a0712d681461021b576100ce565b8062fdd58e146100d3578063016776611461010357806301ffc9a7146101215780630e89341c146101515780632eb2c2d6146101815780634e1273f41461019d575b600080fd5b6100ed60048036038101906100e891906118c4565b6102cf565b6040516100fa9190611913565b60405180910390f35b61010b610397565b6040516101189190611913565b60405180910390f35b61013b60048036038101906101369190611986565b61039d565b60405161014891906119ce565b60405180910390f35b61016b600480360381019061016691906119e9565b61047f565b6040516101789190611aa6565b60405180910390f35b61019b60048036038101906101969190611cc5565b610513565b005b6101b760048036038101906101b29190611e57565b6105b4565b6040516101c49190611f8d565b60405180910390f35b6101e760048036038101906101e291906119e9565b6106cd565b6040516101f491906119ce565b60405180910390f35b6102056106e1565b604051610212919061200e565b60405180910390f35b610235600480360381019061023091906119e9565b610707565b005b610251600480360381019061024c9190612055565b61073f565b005b61026d600480360381019061026891906119e9565b610755565b60405161027a9190611913565b60405180910390f35b61029d60048036038101906102989190612095565b610772565b6040516102aa91906119ce565b60405180910390f35b6102cd60048036038101906102c891906120d5565b610806565b005b60008073ffffffffffffffffffffffffffffffffffffffff168373ffffffffffffffffffffffffffffffffffffffff160361033f576040517f08c379a0000000000000000000000000000000000000000000000000000000008152600401610336906121de565b60405180910390fd5b60008083815260200190815260200160002060008473ffffffffffffffffffffffffffffffffffffffff1673ffffffffffffffffffffffffffffffffffffffff16815260200190815260200160002054905092915050565b60045481565b60007fd9b67a26000000000000000000000000000000000000000000000000000000007bffffffffffffffffffffffffffffffffffffffffffffffffffffffff1916827bffffffffffffffffffffffffffffffffffffffffffffffffffffffff1916148061046857507f0e89341c000000000000000000000000000000000000000000000000000000007bffffffffffffffffffffffffffffffffffffffffffffffffffffffff1916827bffffffffffffffffffffffffffffffffffffffffffffffffffffffff1916145b806104785750610477826108a7565b5b9050919050565b60606002805461048e9061222d565b80601f01602080910402602001604051908101604052809291908181526020018280546104ba9061222d565b80156105075780601f106104dc57610100808354040283529160200191610507565b820191906000526020600020905b8154815290600101906020018083116104ea57829003601f168201915b50505050509050919050565b61051b610911565b73ffffffffffffffffffffffffffffffffffffffff168573ffffffffffffffffffffffffffffffffffffffff16148061056157506105608561055b610911565b610772565b5b6105a0576040517f08c379a0000000000000000000000000000000000000000000000000000000008152600401610597906122d0565b60405180910390fd5b6105ad8585858585610919565b5050505050565b606081518351146105fa576040517f08c379a00000000000000000000000000000000000000000000000000000000081526004016105f190612362565b60405180910390fd5b6000835167ffffffffffffffff81111561061757610616611acd565b5b6040519080825280602002602001820160405280156106455781602001602082028036833780820191505090505b50905060005b84518110156106c25761069285828151811061066a57610669612382565b5b602002602001015185838151811061068557610684612382565b5b60200260200101516102cf565b8282815181106106a5576106a4612382565b5b602002602001018181525050806106bb906123e0565b905061064b565b508091505092915050565b6000806106d983610755565b119050919050565b600560009054906101000a900473ffffffffffffffffffffffffffffffffffffffff1681565b610724336004548360405180602001604052806000815250610c3a565b60046000815480929190610737906123e0565b919050555050565b61075161074a610911565b8383610dea565b5050565b600060036000838152602001908152602001600020549050919050565b6000600160008473ffffffffffffffffffffffffffffffffffffffff1673ffffffffffffffffffffffffffffffffffffffff16815260200190815260200160002060008373ffffffffffffffffffffffffffffffffffffffff1673ffffffffffffffffffffffffffffffffffffffff16815260200190815260200160002060009054906101000a900460ff16905092915050565b61080e610911565b73ffffffffffffffffffffffffffffffffffffffff168573ffffffffffffffffffffffffffffffffffffffff16148061085457506108538561084e610911565b610772565b5b610893576040517f08c379a000000000000000000000000000000000000000000000000000000000815260040161088a906122d0565b60405180910390fd5b6108a08585858585610f56565b5050505050565b60007f01ffc9a7000000000000000000000000000000000000000000000000000000007bffffffffffffffffffffffffffffffffffffffffffffffffffffffff1916827bffffffffffffffffffffffffffffffffffffffffffffffffffffffff1916149050919050565b600033905090565b815183511461095d576040517f08c379a00000000000000000000000000000000000000000000000000000000081526004016109549061249a565b60405180910390fd5b600073ffffffffffffffffffffffffffffffffffffffff168473ffffffffffffffffffffffffffffffffffffffff16036109cc576040517f08c379a00000000000000000000000000000000000000000000000000000000081526004016109c39061252c565b60405180910390fd5b60006109d6610911565b90506109e68187878787876111f1565b60005b8451811015610b97576000858281518110610a0757610a06612382565b5b602002602001015190506000858381518110610a2657610a25612382565b5b60200260200101519050600080600084815260200190815260200160002060008b73ffffffffffffffffffffffffffffffffffffffff1673ffffffffffffffffffffffffffffffffffffffff16815260200190815260200160002054905081811015610ac7576040517f08c379a0000000000000000000000000000000000000000000000000000000008152600401610abe906125be565b60405180910390fd5b81810360008085815260200190815260200160002060008c73ffffffffffffffffffffffffffffffffffffffff1673ffffffffffffffffffffffffffffffffffffffff168152602001908152602001600020819055508160008085815260200190815260200160002060008b73ffffffffffffffffffffffffffffffffffffffff1673ffffffffffffffffffffffffffffffffffffffff1681526020019081526020016000206000828254610b7c91906125de565b9250508190555050505080610b90906123e0565b90506109e9565b508473ffffffffffffffffffffffffffffffffffffffff168673ffffffffffffffffffffffffffffffffffffffff168273ffffffffffffffffffffffffffffffffffffffff167f4a39dc06d4c0dbc64b70af90fd698a233a518aa5d07e595d983b8c0526c8f7fb8787604051610c0e929190612612565b60405180910390a4610c248187878787876113c1565b610c328187878787876113c9565b505050505050565b600073ffffffffffffffffffffffffffffffffffffffff168473ffffffffffffffffffffffffffffffffffffffff1603610ca9576040517f08c379a0000000000000000000000000000000000000000000000000000000008152600401610ca0906126bb565b60405180910390fd5b6000610cb3610911565b90506000610cc0856115a0565b90506000610ccd856115a0565b9050610cde836000898585896111f1565b8460008088815260200190815260200160002060008973ffffffffffffffffffffffffffffffffffffffff1673ffffffffffffffffffffffffffffffffffffffff1681526020019081526020016000206000828254610d3d91906125de565b925050819055508673ffffffffffffffffffffffffffffffffffffffff16600073ffffffffffffffffffffffffffffffffffffffff168473ffffffffffffffffffffffffffffffffffffffff167fc3d58168c5ae7397731d063d5bbf3d657854427343f4c083240f7aacaa2d0f628989604051610dbb9291906126db565b60405180910390a4610dd2836000898585896113c1565b610de18360008989898961161a565b50505050505050565b8173ffffffffffffffffffffffffffffffffffffffff168373ffffffffffffffffffffffffffffffffffffffff1603610e58576040517f08c379a0000000000000000000000000000000000000000000000000000000008152600401610e4f90612776565b60405180910390fd5b80600160008573ffffffffffffffffffffffffffffffffffffffff1673ffffffffffffffffffffffffffffffffffffffff16815260200190815260200160002060008473ffffffffffffffffffffffffffffffffffffffff1673ffffffffffffffffffffffffffffffffffffffff16815260200190815260200160002060006101000a81548160ff0219169083151502179055508173ffffffffffffffffffffffffffffffffffffffff168373ffffffffffffffffffffffffffffffffffffffff167f17307eab39ab6107e8899845ad3d59bd9653f200f220920489ca2b5937696c3183604051610f4991906119ce565b60405180910390a3505050565b600073ffffffffffffffffffffffffffffffffffffffff168473ffffffffffffffffffffffffffffffffffffffff1603610fc5576040517f08c379a0000000000000000000000000000000000000000000000000000000008152600401610fbc9061252c565b60405180910390fd5b6000610fcf610911565b90506000610fdc856115a0565b90506000610fe9856115a0565b9050610ff98389898585896111f1565b600080600088815260200190815260200160002060008a73ffffffffffffffffffffffffffffffffffffffff1673ffffffffffffffffffffffffffffffffffffffff16815260200190815260200160002054905085811015611090576040517f08c379a0000000000000000000000000000000000000000000000000000000008152600401611087906125be565b60405180910390fd5b85810360008089815260200190815260200160002060008b73ffffffffffffffffffffffffffffffffffffffff1673ffffffffffffffffffffffffffffffffffffffff168152602001908152602001600020819055508560008089815260200190815260200160002060008a73ffffffffffffffffffffffffffffffffffffffff1673ffffffffffffffffffffffffffffffffffffffff168152602001908152602001600020600082825461114591906125de565b925050819055508773ffffffffffffffffffffffffffffffffffffffff168973ffffffffffffffffffffffffffffffffffffffff168573ffffffffffffffffffffffffffffffffffffffff167fc3d58168c5ae7397731d063d5bbf3d657854427343f4c083240f7aacaa2d0f628a8a6040516111c29291906126db565b60405180910390a46111d8848a8a86868a6113c1565b6111e6848a8a8a8a8a61161a565b505050505050505050565b6111ff8686868686866117f1565b600073ffffffffffffffffffffffffffffffffffffffff168573ffffffffffffffffffffffffffffffffffffffff16036112b05760005b83518110156112ae5782818151811061125257611251612382565b5b60200260200101516003600086848151811061127157611270612382565b5b60200260200101518152602001908152602001600020600082825461129691906125de565b92505081905550806112a7906123e0565b9050611236565b505b600073ffffffffffffffffffffffffffffffffffffffff168473ffffffffffffffffffffffffffffffffffffffff16036113b95760005b83518110156113b757600084828151811061130557611304612382565b5b60200260200101519050600084838151811061132457611323612382565b5b6020026020010151905060006003600084815260200190815260200160002054905081811015611389576040517f08c379a000000000000000000000000000000000000000000000000000000000815260040161138090612808565b60405180910390fd5b8181036003600085815260200190815260200160002081905550505050806113b0906123e0565b90506112e7565b505b505050505050565b505050505050565b6113e88473ffffffffffffffffffffffffffffffffffffffff166117f9565b15611598578373ffffffffffffffffffffffffffffffffffffffff1663bc197c8187878686866040518663ffffffff1660e01b815260040161142e95949392919061288c565b6020604051808303816000875af192505050801561146a57506040513d601f19601f820116820180604052508101906114679190612909565b60015b61150f57611476612943565b806308c379a0036114d2575061148a612965565b8061149557506114d4565b806040517f08c379a00000000000000000000000000000000000000000000000000000000081526004016114c99190611aa6565b60405180910390fd5b505b6040517f08c379a000000000000000000000000000000000000000000000000000000000815260040161150690612a67565b60405180910390fd5b63bc197c8160e01b7bffffffffffffffffffffffffffffffffffffffffffffffffffffffff1916817bffffffffffffffffffffffffffffffffffffffffffffffffffffffff191614611596576040517f08c379a000000000000000000000000000000000000000000000000000000000815260040161158d90612af9565b60405180910390fd5b505b505050505050565b60606000600167ffffffffffffffff8111156115bf576115be611acd565b5b6040519080825280602002602001820160405280156115ed5781602001602082028036833780820191505090505b509050828160008151811061160557611604612382565b5b60200260200101818152505080915050919050565b6116398473ffffffffffffffffffffffffffffffffffffffff166117f9565b156117e9578373ffffffffffffffffffffffffffffffffffffffff1663f23a6e6187878686866040518663ffffffff1660e01b815260040161167f959493929190612b19565b6020604051808303816000875af19250505080156116bb57506040513d601f19601f820116820180604052508101906116b89190612909565b60015b611760576116c7612943565b806308c379a00361172357506116db612965565b806116e65750611725565b806040517f08c379a000000000000000000000000000000000000000000000000000000000815260040161171a9190611aa6565b60405180910390fd5b505b6040517f08c379a000000000000000000000000000000000000000000000000000000000815260040161175790612a67565b60405180910390fd5b63f23a6e6160e01b7bffffffffffffffffffffffffffffffffffffffffffffffffffffffff1916817bffffffffffffffffffffffffffffffffffffffffffffffffffffffff1916146117e7576040517f08c379a00000000000000000000000000000000000000000000000000000000081526004016117de90612af9565b60405180910390fd5b505b505050505050565b505050505050565b6000808273ffffffffffffffffffffffffffffffffffffffff163b119050919050565b6000604051905090565b600080fd5b600080fd5b600073ffffffffffffffffffffffffffffffffffffffff82169050919050565b600061185b82611830565b9050919050565b61186b81611850565b811461187657600080fd5b50565b60008135905061188881611862565b92915050565b6000819050919050565b6118a18161188e565b81146118ac57600080fd5b50565b6000813590506118be81611898565b92915050565b600080604083850312156118db576118da611826565b5b60006118e985828601611879565b92505060206118fa858286016118af565b9150509250929050565b61190d8161188e565b82525050565b60006020820190506119286000830184611904565b92915050565b60007fffffffff0000000000000000000000000000000000000000000000000000000082169050919050565b6119638161192e565b811461196e57600080fd5b50565b6000813590506119808161195a565b92915050565b60006020828403121561199c5761199b611826565b5b60006119aa84828501611971565b91505092915050565b60008115159050919050565b6119c8816119b3565b82525050565b60006020820190506119e360008301846119bf565b92915050565b6000602082840312156119ff576119fe611826565b5b6000611a0d848285016118af565b91505092915050565b600081519050919050565b600082825260208201905092915050565b60005b83811015611a50578082015181840152602081019050611a35565b60008484015250505050565b6000601f19601f8301169050919050565b6000611a7882611a16565b611a828185611a21565b9350611a92818560208601611a32565b611a9b81611a5c565b840191505092915050565b60006020820190508181036000830152611ac08184611a6d565b905092915050565b600080fd5b7f4e487b7100000000000000000000000000000000000000000000000000000000600052604160045260246000fd5b611b0582611a5c565b810181811067ffffffffffffffff82111715611b2457611b23611acd565b5b80604052505050565b6000611b3761181c565b9050611b438282611afc565b919050565b600067ffffffffffffffff821115611b6357611b62611acd565b5b602082029050602081019050919050565b600080fd5b6000611b8c611b8784611b48565b611b2d565b90508083825260208201905060208402830185811115611baf57611bae611b74565b5b835b81811015611bd85780611bc488826118af565b845260208401935050602081019050611bb1565b5050509392505050565b600082601f830112611bf757611bf6611ac8565b5b8135611c07848260208601611b79565b91505092915050565b600080fd5b600067ffffffffffffffff821115611c3057611c2f611acd565b5b611c3982611a5c565b9050602081019050919050565b82818337600083830152505050565b6000611c68611c6384611c15565b611b2d565b905082815260208101848484011115611c8457611c83611c10565b5b611c8f848285611c46565b509392505050565b600082601f830112611cac57611cab611ac8565b5b8135611cbc848260208601611c55565b91505092915050565b600080600080600060a08688031215611ce157611ce0611826565b5b6000611cef88828901611879565b9550506020611d0088828901611879565b945050604086013567ffffffffffffffff811115611d2157611d2061182b565b5b611d2d88828901611be2565b935050606086013567ffffffffffffffff811115611d4e57611d4d61182b565b5b611d5a88828901611be2565b925050608086013567ffffffffffffffff811115611d7b57611d7a61182b565b5b611d8788828901611c97565b9150509295509295909350565b600067ffffffffffffffff821115611daf57611dae611acd565b5b602082029050602081019050919050565b6000611dd3611dce84611d94565b611b2d565b90508083825260208201905060208402830185811115611df657611df5611b74565b5b835b81811015611e1f5780611e0b8882611879565b845260208401935050602081019050611df8565b5050509392505050565b600082601f830112611e3e57611e3d611ac8565b5b8135611e4e848260208601611dc0565b91505092915050565b60008060408385031215611e6e57611e6d611826565b5b600083013567ffffffffffffffff811115611e8c57611e8b61182b565b5b611e9885828601611e29565b925050602083013567ffffffffffffffff811115611eb957611eb861182b565b5b611ec585828601611be2565b9150509250929050565b600081519050919050565b600082825260208201905092915050565b6000819050602082019050919050565b611f048161188e565b82525050565b6000611f168383611efb565b60208301905092915050565b6000602082019050919050565b6000611f3a82611ecf565b611f448185611eda565b9350611f4f83611eeb565b8060005b83811015611f80578151611f678882611f0a565b9750611f7283611f22565b925050600181019050611f53565b5085935050505092915050565b60006020820190508181036000830152611fa78184611f2f565b905092915050565b6000819050919050565b6000611fd4611fcf611fca84611830565b611faf565b611830565b9050919050565b6000611fe682611fb9565b9050919050565b6000611ff882611fdb565b9050919050565b61200881611fed565b82525050565b60006020820190506120236000830184611fff565b92915050565b612032816119b3565b811461203d57600080fd5b50565b60008135905061204f81612029565b92915050565b6000806040838503121561206c5761206b611826565b5b600061207a85828601611879565b925050602061208b85828601612040565b9150509250929050565b600080604083850312156120ac576120ab611826565b5b60006120ba85828601611879565b92505060206120cb85828601611879565b9150509250929050565b600080600080600060a086880312156120f1576120f0611826565b5b60006120ff88828901611879565b955050602061211088828901611879565b9450506040612121888289016118af565b9350506060612132888289016118af565b925050608086013567ffffffffffffffff8111156121535761215261182b565b5b61215f88828901611c97565b9150509295509295909350565b7f455243313135353a2061646472657373207a65726f206973206e6f742061207660008201527f616c6964206f776e657200000000000000000000000000000000000000000000602082015250565b60006121c8602a83611a21565b91506121d38261216c565b604082019050919050565b600060208201905081810360008301526121f7816121bb565b9050919050565b7f4e487b7100000000000000000000000000000000000000000000000000000000600052602260045260246000fd5b6000600282049050600182168061224557607f821691505b602082108103612258576122576121fe565b5b50919050565b7f455243313135353a2063616c6c6572206973206e6f7420746f6b656e206f776e60008201527f6572206f7220617070726f766564000000000000000000000000000000000000602082015250565b60006122ba602e83611a21565b91506122c58261225e565b604082019050919050565b600060208201905081810360008301526122e9816122ad565b9050919050565b7f455243313135353a206163636f756e747320616e6420696473206c656e67746860008201527f206d69736d617463680000000000000000000000000000000000000000000000602082015250565b600061234c602983611a21565b9150612357826122f0565b604082019050919050565b6000602082019050818103600083015261237b8161233f565b9050919050565b7f4e487b7100000000000000000000000000000000000000000000000000000000600052603260045260246000fd5b7f4e487b7100000000000000000000000000000000000000000000000000000000600052601160045260246000fd5b60006123eb8261188e565b91507fffffffffffffffffffffffffffffffffffffffffffffffffffffffffffffffff820361241d5761241c6123b1565b5b600182019050919050565b7f455243313135353a2069647320616e6420616d6f756e7473206c656e6774682060008201527f6d69736d61746368000000000000000000000000000000000000000000000000602082015250565b6000612484602883611a21565b915061248f82612428565b604082019050919050565b600060208201905081810360008301526124b381612477565b9050919050565b7f455243313135353a207472616e7366657220746f20746865207a65726f20616460008201527f6472657373000000000000000000000000000000000000000000000000000000602082015250565b6000612516602583611a21565b9150612521826124ba565b604082019050919050565b6000602082019050818103600083015261254581612509565b9050919050565b7f455243313135353a20696e73756666696369656e742062616c616e636520666f60008201527f72207472616e7366657200000000000000000000000000000000000000000000602082015250565b60006125a8602a83611a21565b91506125b38261254c565b604082019050919050565b600060208201905081810360008301526125d78161259b565b9050919050565b60006125e98261188e565b91506125f48361188e565b925082820190508082111561260c5761260b6123b1565b5b92915050565b6000604082019050818103600083015261262c8185611f2f565b905081810360208301526126408184611f2f565b90509392505050565b7f455243313135353a206d696e7420746f20746865207a65726f2061646472657360008201527f7300000000000000000000000000000000000000000000000000000000000000602082015250565b60006126a5602183611a21565b91506126b082612649565b604082019050919050565b600060208201905081810360008301526126d481612698565b9050919050565b60006040820190506126f06000830185611904565b6126fd6020830184611904565b9392505050565b7f455243313135353a2073657474696e6720617070726f76616c2073746174757360008201527f20666f722073656c660000000000000000000000000000000000000000000000602082015250565b6000612760602983611a21565b915061276b82612704565b604082019050919050565b6000602082019050818103600083015261278f81612753565b9050919050565b7f455243313135353a206275726e20616d6f756e74206578636565647320746f7460008201527f616c537570706c79000000000000000000000000000000000000000000000000602082015250565b60006127f2602883611a21565b91506127fd82612796565b604082019050919050565b60006020820190508181036000830152612821816127e5565b9050919050565b61283181611850565b82525050565b600081519050919050565b600082825260208201905092915050565b600061285e82612837565b6128688185612842565b9350612878818560208601611a32565b61288181611a5c565b840191505092915050565b600060a0820190506128a16000830188612828565b6128ae6020830187612828565b81810360408301526128c08186611f2f565b905081810360608301526128d48185611f2f565b905081810360808301526128e88184612853565b90509695505050505050565b6000815190506129038161195a565b92915050565b60006020828403121561291f5761291e611826565b5b600061292d848285016128f4565b91505092915050565b60008160e01c9050919050565b600060033d11156129625760046000803e61295f600051612936565b90505b90565b600060443d106129f25761297761181c565b60043d036004823e80513d602482011167ffffffffffffffff8211171561299f5750506129f2565b808201805167ffffffffffffffff8111156129bd57505050506129f2565b80602083010160043d0385018111156129da5750505050506129f2565b6129e982602001850186611afc565b82955050505050505b90565b7f455243313135353a207472616e7366657220746f206e6f6e2d4552433131353560008201527f526563656976657220696d706c656d656e746572000000000000000000000000602082015250565b6000612a51603483611a21565b9150612a5c826129f5565b604082019050919050565b60006020820190508181036000830152612a8081612a44565b9050919050565b7f455243313135353a204552433131353552656365697665722072656a6563746560008201527f6420746f6b656e73000000000000000000000000000000000000000000000000602082015250565b6000612ae3602883611a21565b9150612aee82612a87565b604082019050919050565b60006020820190508181036000830152612b1281612ad6565b9050919050565b600060a082019050612b2e6000830188612828565b612b3b6020830187612828565b612b486040830186611904565b612b556060830185611904565b8181036080830152612b678184612853565b9050969550505050505056fea26469706673582212200ac660a5d22b6889a51451078ab726426e366569f8c9d1f3695d4d9a8f2ed91964736f6c63430008130033",
  "linkReferences": {},
  "deployedLinkReferences": {}
}