{
  "_format": "hh-sol-artifact-1",
  "contractName": "GFALMarketplace",
  "sourceName": "contracts/games/MarketPlace/GFALMarketplace.sol",
  "abi": [
    {
      "inputs": [
        {
          "internalType": "uint256",
          "name": "_royaltiesInBasisPoints",
          "type": "uint256"
        },
        {
          "internalType": "address",
          "name": "_g4alProxy",
          "type": "address"
        }
      ],
      "stateMutability": "nonpayable",
      "type": "constructor"
    },
    {
      "anonymous": false,
      "inputs": [
        {
          "indexed": false,
          "internalType": "address",
          "name": "collection",
          "type": "address"
        },
        {
          "indexed": false,
          "internalType": "uint256",
          "name": "tokenId",
          "type": "uint256"
        },
        {
          "indexed": false,
          "internalType": "uint256",
          "name": "amount",
          "type": "uint256"
        },
        {
          "indexed": false,
          "internalType": "uint256",
          "name": "price",
          "type": "uint256"
        },
        {
          "indexed": false,
          "internalType": "uint256",
          "name": "sellerRevenue",
          "type": "uint256"
        },
        {
          "indexed": false,
          "internalType": "uint256",
          "name": "royalties",
          "type": "uint256"
        },
        {
          "indexed": false,
          "internalType": "address",
          "name": "seller",
          "type": "address"
        },
        {
          "indexed": false,
          "internalType": "address",
          "name": "buyer",
          "type": "address"
        }
      ],
      "name": "BuyToken",
      "type": "event"
    },
    {
      "anonymous": false,
      "inputs": [
        {
          "indexed": false,
          "internalType": "bool",
          "name": "isActive",
          "type": "bool"
        }
      ],
      "name": "ContractStatusUpdated",
      "type": "event"
    },
    {
      "anonymous": false,
      "inputs": [
        {
          "indexed": false,
          "internalType": "address",
          "name": "collection",
          "type": "address"
        },
        {
          "indexed": false,
          "internalType": "uint256",
          "name": "tokenId",
          "type": "uint256"
        },
        {
          "indexed": false,
          "internalType": "address",
          "name": "seller",
          "type": "address"
        }
      ],
      "name": "RemoveToken",
      "type": "event"
    },
    {
      "anonymous": false,
      "inputs": [
        {
          "indexed": false,
          "internalType": "address",
          "name": "collection",
          "type": "address"
        },
        {
          "indexed": false,
          "internalType": "uint256",
          "name": "tokenId",
          "type": "uint256"
        },
        {
          "indexed": false,
          "internalType": "uint256",
          "name": "amount",
          "type": "uint256"
        },
        {
          "indexed": false,
          "internalType": "uint256",
          "name": "price",
          "type": "uint256"
        },
        {
          "indexed": false,
          "internalType": "bool",
          "name": "isDollar",
          "type": "bool"
        },
        {
          "indexed": false,
          "internalType": "address",
          "name": "seller",
          "type": "address"
        }
      ],
      "name": "SellToken",
      "type": "event"
    },
    {
      "inputs": [
        {
          "internalType": "address",
          "name": "contractAddress",
          "type": "address"
        },
        {
          "internalType": "uint256",
          "name": "tokenId",
          "type": "uint256"
        },
        {
          "internalType": "address",
          "name": "seller",
          "type": "address"
        }
      ],
      "name": "buyToken",
      "outputs": [],
      "stateMutability": "nonpayable",
      "type": "function"
    },
    {
      "inputs": [],
      "name": "g4alProxy",
      "outputs": [
        {
          "internalType": "contract G4ALProxy",
          "name": "",
          "type": "address"
        }
      ],
      "stateMutability": "view",
      "type": "function"
    },
    {
      "inputs": [],
      "name": "getSellersList",
      "outputs": [
        {
          "internalType": "address[]",
          "name": "",
          "type": "address[]"
        }
      ],
      "stateMutability": "view",
      "type": "function"
    },
    {
      "inputs": [],
      "name": "isActive",
      "outputs": [
        {
          "internalType": "bool",
          "name": "",
          "type": "bool"
        }
      ],
      "stateMutability": "view",
      "type": "function"
    },
    {
      "inputs": [
        {
          "internalType": "address",
          "name": "",
          "type": "address"
        }
      ],
      "name": "knownSellers",
      "outputs": [
        {
          "internalType": "bool",
          "name": "",
          "type": "bool"
        }
      ],
      "stateMutability": "view",
      "type": "function"
    },
    {
      "inputs": [
        {
          "internalType": "address",
          "name": "contractAddress",
          "type": "address"
        },
        {
          "internalType": "address",
          "name": "_from",
          "type": "address"
        },
        {
          "internalType": "uint256",
          "name": "tokenId",
          "type": "uint256"
        }
      ],
      "name": "removeToken",
      "outputs": [],
      "stateMutability": "nonpayable",
      "type": "function"
    },
    {
      "inputs": [],
      "name": "royaltiesInBasisPoints",
      "outputs": [
        {
          "internalType": "uint256",
          "name": "",
          "type": "uint256"
        }
      ],
      "stateMutability": "view",
      "type": "function"
    },
    {
      "inputs": [
        {
          "internalType": "address",
          "name": "contractAddress",
          "type": "address"
        },
        {
          "internalType": "uint256",
          "name": "tokenId",
          "type": "uint256"
        },
        {
          "internalType": "uint256",
          "name": "amount",
          "type": "uint256"
        },
        {
          "internalType": "uint256",
          "name": "price",
          "type": "uint256"
        },
        {
          "internalType": "bool",
          "name": "isDollar",
          "type": "bool"
        }
      ],
      "name": "sellToken",
      "outputs": [],
      "stateMutability": "nonpayable",
      "type": "function"
    },
    {
      "inputs": [
        {
          "internalType": "uint256",
          "name": "",
          "type": "uint256"
        }
      ],
      "name": "sellersList",
      "outputs": [
        {
          "internalType": "address",
          "name": "",
          "type": "address"
        }
      ],
      "stateMutability": "view",
      "type": "function"
    },
    {
      "inputs": [
        {
          "internalType": "address",
          "name": "",
          "type": "address"
        },
        {
          "internalType": "uint256",
          "name": "",
          "type": "uint256"
        },
        {
          "internalType": "address",
          "name": "",
          "type": "address"
        }
      ],
      "name": "tokensForSale1155",
      "outputs": [
        {
          "internalType": "uint256",
          "name": "price",
          "type": "uint256"
        },
        {
          "internalType": "bool",
          "name": "isDollar",
          "type": "bool"
        },
        {
          "internalType": "bool",
          "name": "isForSale",
          "type": "bool"
        },
        {
          "internalType": "uint256",
          "name": "amount",
          "type": "uint256"
        },
        {
          "internalType": "address",
          "name": "seller",
          "type": "address"
        }
      ],
      "stateMutability": "view",
      "type": "function"
    },
    {
      "inputs": [
        {
          "internalType": "address",
          "name": "",
          "type": "address"
        },
        {
          "internalType": "uint256",
          "name": "",
          "type": "uint256"
        }
      ],
      "name": "tokensForSale721",
      "outputs": [
        {
          "internalType": "uint256",
          "name": "price",
          "type": "uint256"
        },
        {
          "internalType": "bool",
          "name": "isDollar",
          "type": "bool"
        },
        {
          "internalType": "bool",
          "name": "isForSale",
          "type": "bool"
        },
        {
          "internalType": "uint256",
          "name": "amount",
          "type": "uint256"
        },
        {
          "internalType": "address",
          "name": "seller",
          "type": "address"
        }
      ],
      "stateMutability": "view",
      "type": "function"
    },
    {
      "inputs": [
        {
          "internalType": "address",
          "name": "_collectionAddress",
          "type": "address"
        },
        {
          "internalType": "enum GFALMarketplace.TokenStandard",
          "name": "_tokenStandard",
          "type": "uint8"
        },
        {
          "internalType": "bool",
          "name": "_allowed",
          "type": "bool"
        }
      ],
      "name": "updateCollection",
      "outputs": [],
      "stateMutability": "nonpayable",
      "type": "function"
    },
    {
      "inputs": [
        {
          "internalType": "bool",
          "name": "_isActive",
          "type": "bool"
        }
      ],
      "name": "updateContractStatus",
      "outputs": [],
      "stateMutability": "nonpayable",
      "type": "function"
    },
    {
      "inputs": [
        {
          "internalType": "uint256",
          "name": "_royaltiesInBasisPoints",
          "type": "uint256"
        }
      ],
      "name": "updateRoyaltiesInBasisPoints",
      "outputs": [],
      "stateMutability": "nonpayable",
      "type": "function"
    },
    {
      "inputs": [],
      "name": "volume",
      "outputs": [
        {
          "internalType": "uint256",
          "name": "",
          "type": "uint256"
        }
      ],
      "stateMutability": "view",
      "type": "function"
    },
    {
      "inputs": [
        {
          "internalType": "address",
          "name": "",
          "type": "address"
        }
      ],
      "name": "whitelistNFTs",
      "outputs": [
        {
          "internalType": "bool",
          "name": "allowed",
          "type": "bool"
        },
        {
          "internalType": "enum GFALMarketplace.TokenStandard",
          "name": "tokenStandard",
          "type": "uint8"
        }
      ],
      "stateMutability": "view",
      "type": "function"
    }
  ],
  "bytecode": "0x60806040523480156200001157600080fd5b506040516200449b3803806200449b83398181016040528101906200003791906200014f565b60016000819055508160088190555080600160006101000a81548173ffffffffffffffffffffffffffffffffffffffff021916908373ffffffffffffffffffffffffffffffffffffffff1602179055506001600960006101000a81548160ff021916908315150217905550505062000196565b600080fd5b6000819050919050565b620000c481620000af565b8114620000d057600080fd5b50565b600081519050620000e481620000b9565b92915050565b600073ffffffffffffffffffffffffffffffffffffffff82169050919050565b60006200011782620000ea565b9050919050565b62000129816200010a565b81146200013557600080fd5b50565b60008151905062000149816200011e565b92915050565b60008060408385031215620001695762000168620000aa565b5b60006200017985828601620000d3565b92505060206200018c8582860162000138565b9150509250929050565b6142f580620001a66000396000f3fe608060405234801561001057600080fd5b50600436106101005760003560e01c8063655f79d21161009757806384f3859b1161006657806384f3859b146102b6578063a7ef35fb146102d2578063c618a1e4146102ee578063c7d6a1371461030c57610100565b8063655f79d21461022f578063692bf4a81461024b5780636e3e03a81461026757806372f7eb991461029857610100565b80632f228e9f116100d35780632f228e9f1461019157806354ca5100146101ad578063588b6938146101dd57806359e896f5146101fb57610100565b80630675e41b1461010557806307c8ea8a146101395780631c557fa21461015757806322f3e2d414610173575b600080fd5b61011f600480360381019061011a9190612da7565b61033c565b604051610130959493929190612e20565b60405180910390f35b6101416103b9565b60405161014e9190612f31565b60405180910390f35b610171600480360381019061016c9190612f7f565b610447565b005b61017b610599565b6040516101889190612fac565b60405180910390f35b6101ab60048036038101906101a69190612fec565b6105ac565b005b6101c760048036038101906101c2919061303f565b61076a565b6040516101d49190612fac565b60405180910390f35b6101e561078a565b6040516101f2919061306c565b60405180910390f35b61021560048036038101906102109190613087565b610790565b604051610226959493929190612e20565b60405180910390f35b610249600480360381019061024491906130da565b61081a565b005b61026560048036038101906102609190613087565b610922565b005b610281600480360381019061027c919061303f565b6114ab565b60405161028f92919061317e565b60405180910390f35b6102a06114e9565b6040516102ad9190613206565b60405180910390f35b6102d060048036038101906102cb9190613221565b61150f565b005b6102ec60048036038101906102e79190613274565b611bc0565b005b6102f6612880565b604051610303919061306c565b60405180910390f35b610326600480360381019061032191906130da565b612886565b60405161033391906132ef565b60405180910390f35b6004602052816000526040600020602052806000526040600020600091509150508060000154908060010160009054906101000a900460ff16908060010160019054906101000a900460ff16908060020154908060030160009054906101000a900473ffffffffffffffffffffffffffffffffffffffff16905085565b6060600580548060200260200160405190810160405280929190818152602001828054801561043d57602002820191906000526020600020905b8160009054906101000a900473ffffffffffffffffffffffffffffffffffffffff1673ffffffffffffffffffffffffffffffffffffffff16815260200190600101908083116103f3575b5050505050905090565b600160009054906101000a900473ffffffffffffffffffffffffffffffffffffffff1673ffffffffffffffffffffffffffffffffffffffff16638da5cb5b6040518163ffffffff1660e01b8152600401602060405180830381865afa1580156104b4573d6000803e3d6000fd5b505050506040513d601f19601f820116820180604052508101906104d8919061331f565b73ffffffffffffffffffffffffffffffffffffffff163373ffffffffffffffffffffffffffffffffffffffff1614610545576040517f08c379a000000000000000000000000000000000000000000000000000000000815260040161053c906133a9565b60405180910390fd5b80600960006101000a81548160ff0219169083151502179055507f89cb8aeac390e3fc9016dc87a4ed02fbbb63c5adafcbb03db9b6227a14fe589d8160405161058e9190612fac565b60405180910390a150565b600960009054906101000a900460ff1681565b600160009054906101000a900473ffffffffffffffffffffffffffffffffffffffff1673ffffffffffffffffffffffffffffffffffffffff16638da5cb5b6040518163ffffffff1660e01b8152600401602060405180830381865afa158015610619573d6000803e3d6000fd5b505050506040513d601f19601f8201168201806040525081019061063d919061331f565b73ffffffffffffffffffffffffffffffffffffffff163373ffffffffffffffffffffffffffffffffffffffff16146106aa576040517f08c379a00000000000000000000000000000000000000000000000000000000081526004016106a1906133a9565b60405180910390fd5b604051806040016040528082151581526020018360018111156106d0576106cf613107565b5b815250600260008573ffffffffffffffffffffffffffffffffffffffff1673ffffffffffffffffffffffffffffffffffffffff16815260200190815260200160002060008201518160000160006101000a81548160ff02191690831515021790555060208201518160000160016101000a81548160ff0219169083600181111561075d5761075c613107565b5b0217905550905050505050565b60066020528060005260406000206000915054906101000a900460ff1681565b60085481565b600360205282600052604060002060205281600052604060002060205280600052604060002060009250925050508060000154908060010160009054906101000a900460ff16908060010160019054906101000a900460ff16908060020154908060030160009054906101000a900473ffffffffffffffffffffffffffffffffffffffff16905085565b600160009054906101000a900473ffffffffffffffffffffffffffffffffffffffff1673ffffffffffffffffffffffffffffffffffffffff16638da5cb5b6040518163ffffffff1660e01b8152600401602060405180830381865afa158015610887573d6000803e3d6000fd5b505050506040513d601f19601f820116820180604052508101906108ab919061331f565b73ffffffffffffffffffffffffffffffffffffffff163373ffffffffffffffffffffffffffffffffffffffff1614610918576040517f08c379a000000000000000000000000000000000000000000000000000000000815260040161090f906133a9565b60405180910390fd5b8060088190555050565b61092a6128c5565b600960009054906101000a900460ff16610979576040517f08c379a000000000000000000000000000000000000000000000000000000000815260040161097090613415565b60405180910390fd5b600260008473ffffffffffffffffffffffffffffffffffffffff1673ffffffffffffffffffffffffffffffffffffffff16815260200190815260200160002060000160009054906101000a900460ff16610a08576040517f08c379a00000000000000000000000000000000000000000000000000000000081526004016109ff90613481565b60405180910390fd5b6000806001811115610a1d57610a1c613107565b5b600260008673ffffffffffffffffffffffffffffffffffffffff1673ffffffffffffffffffffffffffffffffffffffff16815260200190815260200160002060000160019054906101000a900460ff166001811115610a7f57610a7e613107565b5b149050610a8a612cc5565b8115610c4457600460008673ffffffffffffffffffffffffffffffffffffffff1673ffffffffffffffffffffffffffffffffffffffff16815260200190815260200160002060008581526020019081526020016000206040518060a0016040529081600082015481526020016001820160009054906101000a900460ff161515151581526020016001820160019054906101000a900460ff16151515158152602001600282015481526020016003820160009054906101000a900473ffffffffffffffffffffffffffffffffffffffff1673ffffffffffffffffffffffffffffffffffffffff1673ffffffffffffffffffffffffffffffffffffffff16815250509050600460008673ffffffffffffffffffffffffffffffffffffffff1673ffffffffffffffffffffffffffffffffffffffff16815260200190815260200160002060008581526020019081526020016000206000808201600090556001820160006101000a81549060ff02191690556001820160016101000a81549060ff021916905560028201600090556003820160006101000a81549073ffffffffffffffffffffffffffffffffffffffff02191690555050610e6e565b600360008673ffffffffffffffffffffffffffffffffffffffff1673ffffffffffffffffffffffffffffffffffffffff168152602001908152602001600020600085815260200190815260200160002060008473ffffffffffffffffffffffffffffffffffffffff1673ffffffffffffffffffffffffffffffffffffffff1681526020019081526020016000206040518060a0016040529081600082015481526020016001820160009054906101000a900460ff161515151581526020016001820160019054906101000a900460ff16151515158152602001600282015481526020016003820160009054906101000a900473ffffffffffffffffffffffffffffffffffffffff1673ffffffffffffffffffffffffffffffffffffffff1673ffffffffffffffffffffffffffffffffffffffff16815250509050600360008673ffffffffffffffffffffffffffffffffffffffff1673ffffffffffffffffffffffffffffffffffffffff168152602001908152602001600020600085815260200190815260200160002060008473ffffffffffffffffffffffffffffffffffffffff1673ffffffffffffffffffffffffffffffffffffffff1681526020019081526020016000206000808201600090556001820160006101000a81549060ff02191690556001820160016101000a81549060ff021916905560028201600090556003820160006101000a81549073ffffffffffffffffffffffffffffffffffffffff021916905550505b8060400151610eb2576040517f08c379a0000000000000000000000000000000000000000000000000000000008152600401610ea9906134ed565b60405180910390fd5b6000600115158260200151151514610ece578160000151610fdd565b600160009054906101000a900473ffffffffffffffffffffffffffffffffffffffff1673ffffffffffffffffffffffffffffffffffffffff16636c84dd816040518163ffffffff1660e01b8152600401602060405180830381865afa158015610f3b573d6000803e3d6000fd5b505050506040513d601f19601f82011682018060405250810190610f5f919061331f565b73ffffffffffffffffffffffffffffffffffffffff16636e5b6b2883600001516040518263ffffffff1660e01b8152600401610f9b919061306c565b602060405180830381865afa158015610fb8573d6000803e3d6000fd5b505050506040513d601f19601f82011682018060405250810190610fdc9190613522565b5b9050600080610feb83612914565b9150915082600160009054906101000a900473ffffffffffffffffffffffffffffffffffffffff1673ffffffffffffffffffffffffffffffffffffffff1663ade3e2d16040518163ffffffff1660e01b8152600401602060405180830381865afa15801561105d573d6000803e3d6000fd5b505050506040513d601f19601f82011682018060405250810190611081919061331f565b73ffffffffffffffffffffffffffffffffffffffff1663dd62ed3e33306040518363ffffffff1660e01b81526004016110bb92919061354f565b602060405180830381865afa1580156110d8573d6000803e3d6000fd5b505050506040513d601f19601f820116820180604052508101906110fc9190613522565b101561113d576040517f08c379a0000000000000000000000000000000000000000000000000000000008152600401611134906135ea565b60405180910390fd5b84156111b7578773ffffffffffffffffffffffffffffffffffffffff166342842e0e87338a6040518463ffffffff1660e01b81526004016111809392919061360a565b600060405180830381600087803b15801561119a57600080fd5b505af11580156111ae573d6000803e3d6000fd5b5050505061122d565b8773ffffffffffffffffffffffffffffffffffffffff1663f242432a87338a88606001516040518563ffffffff1660e01b81526004016111fa9493929190613678565b600060405180830381600087803b15801561121457600080fd5b505af1158015611228573d6000803e3d6000fd5b505050505b6112ea338784600160009054906101000a900473ffffffffffffffffffffffffffffffffffffffff1673ffffffffffffffffffffffffffffffffffffffff1663ade3e2d16040518163ffffffff1660e01b8152600401602060405180830381865afa1580156112a0573d6000803e3d6000fd5b505050506040513d601f19601f820116820180604052508101906112c4919061331f565b73ffffffffffffffffffffffffffffffffffffffff1661295c909392919063ffffffff16565b61143733600160009054906101000a900473ffffffffffffffffffffffffffffffffffffffff1673ffffffffffffffffffffffffffffffffffffffff16631b4338446040518163ffffffff1660e01b8152600401602060405180830381865afa15801561135b573d6000803e3d6000fd5b505050506040513d601f19601f8201168201806040525081019061137f919061331f565b83600160009054906101000a900473ffffffffffffffffffffffffffffffffffffffff1673ffffffffffffffffffffffffffffffffffffffff1663ade3e2d16040518163ffffffff1660e01b8152600401602060405180830381865afa1580156113ed573d6000803e3d6000fd5b505050506040513d601f19601f82011682018060405250810190611411919061331f565b73ffffffffffffffffffffffffffffffffffffffff1661295c909392919063ffffffff16565b826007600082825461144991906136ff565b925050819055507fb10c847932aa588bf2dc0c501fabdede536adde6630864fe7b266fbcb2ad6498888886606001518686868c33604051611491989796959493929190613733565b60405180910390a150505050506114a66129e5565b505050565b60026020528060005260406000206000915090508060000160009054906101000a900460ff16908060000160019054906101000a900460ff16905082565b600160009054906101000a900473ffffffffffffffffffffffffffffffffffffffff1681565b6000600160009054906101000a900473ffffffffffffffffffffffffffffffffffffffff1673ffffffffffffffffffffffffffffffffffffffff16638da5cb5b6040518163ffffffff1660e01b8152600401602060405180830381865afa15801561157e573d6000803e3d6000fd5b505050506040513d601f19601f820116820180604052508101906115a2919061331f565b90508273ffffffffffffffffffffffffffffffffffffffff163373ffffffffffffffffffffffffffffffffffffffff16148061160957508073ffffffffffffffffffffffffffffffffffffffff163373ffffffffffffffffffffffffffffffffffffffff16145b611648576040517f08c379a000000000000000000000000000000000000000000000000000000000815260040161163f906137fd565b60405180910390fd5b6000600181111561165c5761165b613107565b5b600260008673ffffffffffffffffffffffffffffffffffffffff1673ffffffffffffffffffffffffffffffffffffffff16815260200190815260200160002060000160019054906101000a900460ff1660018111156116be576116bd613107565b5b03611919578273ffffffffffffffffffffffffffffffffffffffff168473ffffffffffffffffffffffffffffffffffffffff16636352211e846040518263ffffffff1660e01b8152600401611713919061306c565b602060405180830381865afa158015611730573d6000803e3d6000fd5b505050506040513d601f19601f82011682018060405250810190611754919061331f565b73ffffffffffffffffffffffffffffffffffffffff1614806117a157508073ffffffffffffffffffffffffffffffffffffffff163373ffffffffffffffffffffffffffffffffffffffff16145b6117e0576040517f08c379a00000000000000000000000000000000000000000000000000000000081526004016117d79061388f565b60405180910390fd5b6040518060a001604052806000815260200160001515815260200160001515815260200160008152602001600073ffffffffffffffffffffffffffffffffffffffff16815250600460008673ffffffffffffffffffffffffffffffffffffffff1673ffffffffffffffffffffffffffffffffffffffff16815260200190815260200160002060008481526020019081526020016000206000820151816000015560208201518160010160006101000a81548160ff02191690831515021790555060408201518160010160016101000a81548160ff0219169083151502179055506060820151816002015560808201518160030160006101000a81548173ffffffffffffffffffffffffffffffffffffffff021916908373ffffffffffffffffffffffffffffffffffffffff160217905550905050611b7f565b60008473ffffffffffffffffffffffffffffffffffffffff1662fdd58e85856040518363ffffffff1660e01b81526004016119559291906138af565b602060405180830381865afa158015611972573d6000803e3d6000fd5b505050506040513d601f19601f820116820180604052508101906119969190613522565b1415806119ce57508073ffffffffffffffffffffffffffffffffffffffff163373ffffffffffffffffffffffffffffffffffffffff16145b611a0d576040517f08c379a0000000000000000000000000000000000000000000000000000000008152600401611a049061394a565b60405180910390fd5b6040518060a001604052806000815260200160001515815260200160001515815260200160008152602001600073ffffffffffffffffffffffffffffffffffffffff16815250600360008673ffffffffffffffffffffffffffffffffffffffff1673ffffffffffffffffffffffffffffffffffffffff168152602001908152602001600020600084815260200190815260200160002060008573ffffffffffffffffffffffffffffffffffffffff1673ffffffffffffffffffffffffffffffffffffffff1681526020019081526020016000206000820151816000015560208201518160010160006101000a81548160ff02191690831515021790555060408201518160010160016101000a81548160ff0219169083151502179055506060820151816002015560808201518160030160006101000a81548173ffffffffffffffffffffffffffffffffffffffff021916908373ffffffffffffffffffffffffffffffffffffffff1602179055509050505b7fc3e81845cf9d9802fe8e058353ce034c229b670ce0fb04a08db41a1ba52a90a0848385604051611bb29392919061396a565b60405180910390a150505050565b8433856000600260008573ffffffffffffffffffffffffffffffffffffffff1673ffffffffffffffffffffffffffffffffffffffff1681526020019081526020016000206040518060400160405290816000820160009054906101000a900460ff161515151581526020016000820160019054906101000a900460ff166001811115611c4f57611c4e613107565b5b6001811115611c6157611c60613107565b5b815250509050600115158160000151151514611cb2576040517f08c379a0000000000000000000000000000000000000000000000000000000008152600401611ca990613a13565b60405180910390fd5b60006001811115611cc657611cc5613107565b5b81602001516001811115611cdd57611cdc613107565b5b03611dce578273ffffffffffffffffffffffffffffffffffffffff168473ffffffffffffffffffffffffffffffffffffffff16636352211e846040518263ffffffff1660e01b8152600401611d32919061306c565b602060405180830381865afa158015611d4f573d6000803e3d6000fd5b505050506040513d601f19601f82011682018060405250810190611d73919061331f565b73ffffffffffffffffffffffffffffffffffffffff1614611dc9576040517f08c379a0000000000000000000000000000000000000000000000000000000008152600401611dc09061388f565b60405180910390fd5b611e8c565b60008473ffffffffffffffffffffffffffffffffffffffff1662fdd58e33856040518363ffffffff1660e01b8152600401611e0a9291906138af565b602060405180830381865afa158015611e27573d6000803e3d6000fd5b505050506040513d601f19601f82011682018060405250810190611e4b9190613522565b03611e8b576040517f08c379a0000000000000000000000000000000000000000000000000000000008152600401611e829061394a565b60405180910390fd5b5b60008711611ecf576040517f08c379a0000000000000000000000000000000000000000000000000000000008152600401611ec690613a7f565b60405180910390fd5b600960009054906101000a900460ff16611f1e576040517f08c379a0000000000000000000000000000000000000000000000000000000008152600401611f1590613aeb565b60405180910390fd5b600260008a73ffffffffffffffffffffffffffffffffffffffff1673ffffffffffffffffffffffffffffffffffffffff16815260200190815260200160002060000160009054906101000a900460ff16611fad576040517f08c379a0000000000000000000000000000000000000000000000000000000008152600401611fa490613481565b60405180910390fd5b60008603611ff0576040517f08c379a0000000000000000000000000000000000000000000000000000000008152600401611fe790613b57565b60405180910390fd5b60001515600660003373ffffffffffffffffffffffffffffffffffffffff1673ffffffffffffffffffffffffffffffffffffffff16815260200190815260200160002060009054906101000a900460ff16151503612104576001600660003373ffffffffffffffffffffffffffffffffffffffff1673ffffffffffffffffffffffffffffffffffffffff16815260200190815260200160002060006101000a81548160ff0219169083151502179055506005339080600181540180825580915050600190039060005260206000200160009091909190916101000a81548173ffffffffffffffffffffffffffffffffffffffff021916908373ffffffffffffffffffffffffffffffffffffffff1602179055505b6000600181111561211857612117613107565b5b600260008b73ffffffffffffffffffffffffffffffffffffffff1673ffffffffffffffffffffffffffffffffffffffff16815260200190815260200160002060000160019054906101000a900460ff16600181111561217a57612179613107565b5b0361247457600187146121c2576040517f08c379a00000000000000000000000000000000000000000000000000000000081526004016121b990613bc3565b60405180910390fd5b6000600460008b73ffffffffffffffffffffffffffffffffffffffff1673ffffffffffffffffffffffffffffffffffffffff16815260200190815260200160002060008a81526020019081526020016000206002015414612258576040517f08c379a000000000000000000000000000000000000000000000000000000000815260040161224f90613c2f565b60405180910390fd5b3073ffffffffffffffffffffffffffffffffffffffff168973ffffffffffffffffffffffffffffffffffffffff1663081812fc8a6040518263ffffffff1660e01b81526004016122a8919061306c565b602060405180830381865afa1580156122c5573d6000803e3d6000fd5b505050506040513d601f19601f820116820180604052508101906122e9919061331f565b73ffffffffffffffffffffffffffffffffffffffff161461233f576040517f08c379a000000000000000000000000000000000000000000000000000000000815260040161233690613cc1565b60405180910390fd5b6040518060a0016040528087815260200186151581526020016001151581526020018881526020013373ffffffffffffffffffffffffffffffffffffffff16815250600460008b73ffffffffffffffffffffffffffffffffffffffff1673ffffffffffffffffffffffffffffffffffffffff16815260200190815260200160002060008a81526020019081526020016000206000820151816000015560208201518160010160006101000a81548160ff02191690831515021790555060408201518160010160016101000a81548160ff0219169083151502179055506060820151816002015560808201518160030160006101000a81548173ffffffffffffffffffffffffffffffffffffffff021916908373ffffffffffffffffffffffffffffffffffffffff160217905550905050612834565b868973ffffffffffffffffffffffffffffffffffffffff1662fdd58e338b6040518363ffffffff1660e01b81526004016124af9291906138af565b602060405180830381865afa1580156124cc573d6000803e3d6000fd5b505050506040513d601f19601f820116820180604052508101906124f09190613522565b1015612531576040517f08c379a000000000000000000000000000000000000000000000000000000000815260040161252890613d2d565b60405180910390fd5b6000600360008b73ffffffffffffffffffffffffffffffffffffffff1673ffffffffffffffffffffffffffffffffffffffff16815260200190815260200160002060008a815260200190815260200160002060003373ffffffffffffffffffffffffffffffffffffffff1673ffffffffffffffffffffffffffffffffffffffff1681526020019081526020016000206002015414612604576040517f08c379a00000000000000000000000000000000000000000000000000000000081526004016125fb90613d99565b60405180910390fd5b600115158973ffffffffffffffffffffffffffffffffffffffff1663e985e9c533306040518363ffffffff1660e01b815260040161264392919061354f565b602060405180830381865afa158015612660573d6000803e3d6000fd5b505050506040513d601f19601f820116820180604052508101906126849190613dce565b1515146126c6576040517f08c379a00000000000000000000000000000000000000000000000000000000081526004016126bd90613e6d565b60405180910390fd5b6040518060a0016040528087815260200186151581526020016001151581526020018881526020013373ffffffffffffffffffffffffffffffffffffffff16815250600360008b73ffffffffffffffffffffffffffffffffffffffff1673ffffffffffffffffffffffffffffffffffffffff16815260200190815260200160002060008a815260200190815260200160002060003373ffffffffffffffffffffffffffffffffffffffff1673ffffffffffffffffffffffffffffffffffffffff1681526020019081526020016000206000820151816000015560208201518160010160006101000a81548160ff02191690831515021790555060408201518160010160016101000a81548160ff0219169083151502179055506060820151816002015560808201518160030160006101000a81548173ffffffffffffffffffffffffffffffffffffffff021916908373ffffffffffffffffffffffffffffffffffffffff1602179055509050505b7fd3f91e96755bfa11450dae0a3d05885e0f63555e67f8ad9c491731dcd47b368e89898989893360405161286d96959493929190613e8d565b60405180910390a1505050505050505050565b60075481565b6005818154811061289657600080fd5b906000526020600020016000915054906101000a900473ffffffffffffffffffffffffffffffffffffffff1681565b60026000540361290a576040517f08c379a000000000000000000000000000000000000000000000000000000000815260040161290190613f3a565b60405180910390fd5b6002600081905550565b600080612940612710612932600854866129ef90919063ffffffff16565b612a0590919063ffffffff16565b90506129558184612a1b90919063ffffffff16565b9150915091565b6129df846323b872dd60e01b85858560405160240161297d9392919061360a565b604051602081830303815290604052907bffffffffffffffffffffffffffffffffffffffffffffffffffffffff19166020820180517bffffffffffffffffffffffffffffffffffffffffffffffffffffffff8381831617835250505050612a31565b50505050565b6001600081905550565b600081836129fd9190613f5a565b905092915050565b60008183612a139190613fcb565b905092915050565b60008183612a299190613ffc565b905092915050565b6000612a93826040518060400160405280602081526020017f5361666545524332303a206c6f772d6c6576656c2063616c6c206661696c65648152508573ffffffffffffffffffffffffffffffffffffffff16612af89092919063ffffffff16565b9050600081511115612af35780806020019051810190612ab39190613dce565b612af2576040517f08c379a0000000000000000000000000000000000000000000000000000000008152600401612ae9906140a2565b60405180910390fd5b5b505050565b6060612b078484600085612b10565b90509392505050565b606082471015612b55576040517f08c379a0000000000000000000000000000000000000000000000000000000008152600401612b4c90614134565b60405180910390fd5b6000808673ffffffffffffffffffffffffffffffffffffffff168587604051612b7e91906141c5565b60006040518083038185875af1925050503d8060008114612bbb576040519150601f19603f3d011682016040523d82523d6000602084013e612bc0565b606091505b5091509150612bd187838387612bdd565b92505050949350505050565b60608315612c3f576000835103612c3757612bf785612c52565b612c36576040517f08c379a0000000000000000000000000000000000000000000000000000000008152600401612c2d90614228565b60405180910390fd5b5b829050612c4a565b612c498383612c75565b5b949350505050565b6000808273ffffffffffffffffffffffffffffffffffffffff163b119050919050565b600082511115612c885781518083602001fd5b806040517f08c379a0000000000000000000000000000000000000000000000000000000008152600401612cbc919061429d565b60405180910390fd5b6040518060a001604052806000815260200160001515815260200160001515815260200160008152602001600073ffffffffffffffffffffffffffffffffffffffff1681525090565b600080fd5b600073ffffffffffffffffffffffffffffffffffffffff82169050919050565b6000612d3e82612d13565b9050919050565b612d4e81612d33565b8114612d5957600080fd5b50565b600081359050612d6b81612d45565b92915050565b6000819050919050565b612d8481612d71565b8114612d8f57600080fd5b50565b600081359050612da181612d7b565b92915050565b60008060408385031215612dbe57612dbd612d0e565b5b6000612dcc85828601612d5c565b9250506020612ddd85828601612d92565b9150509250929050565b612df081612d71565b82525050565b60008115159050919050565b612e0b81612df6565b82525050565b612e1a81612d33565b82525050565b600060a082019050612e356000830188612de7565b612e426020830187612e02565b612e4f6040830186612e02565b612e5c6060830185612de7565b612e696080830184612e11565b9695505050505050565b600081519050919050565b600082825260208201905092915050565b6000819050602082019050919050565b612ea881612d33565b82525050565b6000612eba8383612e9f565b60208301905092915050565b6000602082019050919050565b6000612ede82612e73565b612ee88185612e7e565b9350612ef383612e8f565b8060005b83811015612f24578151612f0b8882612eae565b9750612f1683612ec6565b925050600181019050612ef7565b5085935050505092915050565b60006020820190508181036000830152612f4b8184612ed3565b905092915050565b612f5c81612df6565b8114612f6757600080fd5b50565b600081359050612f7981612f53565b92915050565b600060208284031215612f9557612f94612d0e565b5b6000612fa384828501612f6a565b91505092915050565b6000602082019050612fc16000830184612e02565b92915050565b60028110612fd457600080fd5b50565b600081359050612fe681612fc7565b92915050565b60008060006060848603121561300557613004612d0e565b5b600061301386828701612d5c565b935050602061302486828701612fd7565b925050604061303586828701612f6a565b9150509250925092565b60006020828403121561305557613054612d0e565b5b600061306384828501612d5c565b91505092915050565b60006020820190506130816000830184612de7565b92915050565b6000806000606084860312156130a05761309f612d0e565b5b60006130ae86828701612d5c565b93505060206130bf86828701612d92565b92505060406130d086828701612d5c565b9150509250925092565b6000602082840312156130f0576130ef612d0e565b5b60006130fe84828501612d92565b91505092915050565b7f4e487b7100000000000000000000000000000000000000000000000000000000600052602160045260246000fd5b6002811061314757613146613107565b5b50565b600081905061315882613136565b919050565b60006131688261314a565b9050919050565b6131788161315d565b82525050565b60006040820190506131936000830185612e02565b6131a0602083018461316f565b9392505050565b6000819050919050565b60006131cc6131c76131c284612d13565b6131a7565b612d13565b9050919050565b60006131de826131b1565b9050919050565b60006131f0826131d3565b9050919050565b613200816131e5565b82525050565b600060208201905061321b60008301846131f7565b92915050565b60008060006060848603121561323a57613239612d0e565b5b600061324886828701612d5c565b935050602061325986828701612d5c565b925050604061326a86828701612d92565b9150509250925092565b600080600080600060a086880312156132905761328f612d0e565b5b600061329e88828901612d5c565b95505060206132af88828901612d92565b94505060406132c088828901612d92565b93505060606132d188828901612d92565b92505060806132e288828901612f6a565b9150509295509295909350565b60006020820190506133046000830184612e11565b92915050565b60008151905061331981612d45565b92915050565b60006020828403121561333557613334612d0e565b5b60006133438482850161330a565b91505092915050565b600082825260208201905092915050565b7f4e6f74206f776e65720000000000000000000000000000000000000000000000600082015250565b600061339360098361334c565b915061339e8261335d565b602082019050919050565b600060208201905081810360008301526133c281613386565b9050919050565b7f534320556e646572206d61696e74656e616e6365000000000000000000000000600082015250565b60006133ff60148361334c565b915061340a826133c9565b602082019050919050565b6000602082019050818103600083015261342e816133f2565b9050919050565b7f4e6f7420616c6c6f776564204e465420636f6c6c656374696f6e000000000000600082015250565b600061346b601a8361334c565b915061347682613435565b602082019050919050565b6000602082019050818103600083015261349a8161345e565b9050919050565b7f546f6b656e206973206e6f7420666f722073616c652e00000000000000000000600082015250565b60006134d760168361334c565b91506134e2826134a1565b602082019050919050565b60006020820190508181036000830152613506816134ca565b9050919050565b60008151905061351c81612d7b565b92915050565b60006020828403121561353857613537612d0e565b5b60006135468482850161350d565b91505092915050565b60006040820190506135646000830185612e11565b6135716020830184612e11565b9392505050565b7f4746414c20686173206e6f74206265656e20617070726f76656420666f72207360008201527f70656e64696e672e000000000000000000000000000000000000000000000000602082015250565b60006135d460288361334c565b91506135df82613578565b604082019050919050565b60006020820190508181036000830152613603816135c7565b9050919050565b600060608201905061361f6000830186612e11565b61362c6020830185612e11565b6136396040830184612de7565b949350505050565b600082825260208201905092915050565b50565b6000613662600083613641565b915061366d82613652565b600082019050919050565b600060a08201905061368d6000830187612e11565b61369a6020830186612e11565b6136a76040830185612de7565b6136b46060830184612de7565b81810360808301526136c581613655565b905095945050505050565b7f4e487b7100000000000000000000000000000000000000000000000000000000600052601160045260246000fd5b600061370a82612d71565b915061371583612d71565b925082820190508082111561372d5761372c6136d0565b5b92915050565b600061010082019050613749600083018b612e11565b613756602083018a612de7565b6137636040830189612de7565b6137706060830188612de7565b61377d6080830187612de7565b61378a60a0830186612de7565b61379760c0830185612e11565b6137a460e0830184612e11565b9998505050505050505050565b7f4e6f74206f776e657220746f6b656e206f72206f776e65722053430000000000600082015250565b60006137e7601b8361334c565b91506137f2826137b1565b602082019050919050565b60006020820190508181036000830152613816816137da565b9050919050565b7f546f6b656e20646f6573206e6f742062656c6f6e6720746f2075736572206f7260008201527f206e6f74206578697374696e67203732312e0000000000000000000000000000602082015250565b600061387960328361334c565b91506138848261381d565b604082019050919050565b600060208201905081810360008301526138a88161386c565b9050919050565b60006040820190506138c46000830185612e11565b6138d16020830184612de7565b9392505050565b7f546f6b656e20646f6573206e6f742062656c6f6e6720746f2075736572206f7260008201527f206e6f74206578697374696e6720313135352e00000000000000000000000000602082015250565b600061393460338361334c565b915061393f826138d8565b604082019050919050565b6000602082019050818103600083015261396381613927565b9050919050565b600060608201905061397f6000830186612e11565b61398c6020830185612de7565b6139996040830184612e11565b949350505050565b7f596f752063616e2073656c6c206f6e6c7920746f6b656e732061626f7574207760008201527f686974656c697374656420636f6c6c656374696f6e732e000000000000000000602082015250565b60006139fd60378361334c565b9150613a08826139a1565b604082019050919050565b60006020820190508181036000830152613a2c816139f0565b9050919050565b7f416d6f756e742063616e6e6f7420626520300000000000000000000000000000600082015250565b6000613a6960128361334c565b9150613a7482613a33565b602082019050919050565b60006020820190508181036000830152613a9881613a5c565b9050919050565b7f4d61726b6574506c61636520556e646572206d61696e74656e616e6365000000600082015250565b6000613ad5601d8361334c565b9150613ae082613a9f565b602082019050919050565b60006020820190508181036000830152613b0481613ac8565b9050919050565b7f43616e6e6f7420707574207a65726f2061732061207072696365000000000000600082015250565b6000613b41601a8361334c565b9150613b4c82613b0b565b602082019050919050565b60006020820190508181036000830152613b7081613b34565b9050919050565b7f416d6f756e74206e6565647320746f2062652031000000000000000000000000600082015250565b6000613bad60148361334c565b9150613bb882613b77565b602082019050919050565b60006020820190508181036000830152613bdc81613ba0565b9050919050565b7f546f6b656e494420616c7265616479206f6e2073616c65000000000000000000600082015250565b6000613c1960178361334c565b9150613c2482613be3565b602082019050919050565b60006020820190508181036000830152613c4881613c0c565b9050919050565b7f4e465420686173206e6f74206265656e20617070726f76656420666f7220737060008201527f656e64696e67203732312e000000000000000000000000000000000000000000602082015250565b6000613cab602b8361334c565b9150613cb682613c4f565b604082019050919050565b60006020820190508181036000830152613cda81613c9e565b9050919050565b7f4e6f7420656e6f75676820746f6b656e2062616c616e63652031313535000000600082015250565b6000613d17601d8361334c565b9150613d2282613ce1565b602082019050919050565b60006020820190508181036000830152613d4681613d0a565b9050919050565b7f4f6e6c79206f6e652073616c6520706572206964203131353500000000000000600082015250565b6000613d8360198361334c565b9150613d8e82613d4d565b602082019050919050565b60006020820190508181036000830152613db281613d76565b9050919050565b600081519050613dc881612f53565b92915050565b600060208284031215613de457613de3612d0e565b5b6000613df284828501613db9565b91505092915050565b7f4e465420686173206e6f74206265656e20617070726f76656420666f7220737060008201527f656e64696e6720313135352e0000000000000000000000000000000000000000602082015250565b6000613e57602c8361334c565b9150613e6282613dfb565b604082019050919050565b60006020820190508181036000830152613e8681613e4a565b9050919050565b600060c082019050613ea26000830189612e11565b613eaf6020830188612de7565b613ebc6040830187612de7565b613ec96060830186612de7565b613ed66080830185612e02565b613ee360a0830184612e11565b979650505050505050565b7f5265656e7472616e637947756172643a207265656e7472616e742063616c6c00600082015250565b6000613f24601f8361334c565b9150613f2f82613eee565b602082019050919050565b60006020820190508181036000830152613f5381613f17565b9050919050565b6000613f6582612d71565b9150613f7083612d71565b9250828202613f7e81612d71565b91508282048414831517613f9557613f946136d0565b5b5092915050565b7f4e487b7100000000000000000000000000000000000000000000000000000000600052601260045260246000fd5b6000613fd682612d71565b9150613fe183612d71565b925082613ff157613ff0613f9c565b5b828204905092915050565b600061400782612d71565b915061401283612d71565b925082820390508181111561402a576140296136d0565b5b92915050565b7f5361666545524332303a204552433230206f7065726174696f6e20646964206e60008201527f6f74207375636365656400000000000000000000000000000000000000000000602082015250565b600061408c602a8361334c565b915061409782614030565b604082019050919050565b600060208201905081810360008301526140bb8161407f565b9050919050565b7f416464726573733a20696e73756666696369656e742062616c616e636520666f60008201527f722063616c6c0000000000000000000000000000000000000000000000000000602082015250565b600061411e60268361334c565b9150614129826140c2565b604082019050919050565b6000602082019050818103600083015261414d81614111565b9050919050565b600081519050919050565b600081905092915050565b60005b8381101561418857808201518184015260208101905061416d565b60008484015250505050565b600061419f82614154565b6141a9818561415f565b93506141b981856020860161416a565b80840191505092915050565b60006141d18284614194565b915081905092915050565b7f416464726573733a2063616c6c20746f206e6f6e2d636f6e7472616374000000600082015250565b6000614212601d8361334c565b915061421d826141dc565b602082019050919050565b6000602082019050818103600083015261424181614205565b9050919050565b600081519050919050565b6000601f19601f8301169050919050565b600061426f82614248565b614279818561334c565b935061428981856020860161416a565b61429281614253565b840191505092915050565b600060208201905081810360008301526142b78184614264565b90509291505056fea2646970667358221220666bd079bee5580eba7a5f1a9e1dab6eb78d5d3493c3f97b69eec68174fae7a564736f6c63430008130033",
  "linkReferences": {},
  "deployedLinkReferences": {}
}