{
  "_format": "hh-sol-artifact-1",
  "contractName": "ElementalRaidersSkill",
  "sourceName": "contracts/games/ElementalRaiders/Skill/ElementalRaidersSkill.sol",
  "abi": [
    {
      "inputs": [
        {
          "internalType": "address",
          "name": "_g4alProxy",
          "type": "address"
        },
        {
          "internalType": "string",
          "name": "_baseUri",
          "type": "string"
        }
      ],
      "stateMutability": "nonpayable",
      "type": "constructor"
    },
    {
      "anonymous": false,
      "inputs": [
        {
          "indexed": true,
          "internalType": "address",
          "name": "owner",
          "type": "address"
        },
        {
          "indexed": true,
          "internalType": "address",
          "name": "approved",
          "type": "address"
        },
        {
          "indexed": true,
          "internalType": "uint256",
          "name": "tokenId",
          "type": "uint256"
        }
      ],
      "name": "Approval",
      "type": "event"
    },
    {
      "anonymous": false,
      "inputs": [
        {
          "indexed": true,
          "internalType": "address",
          "name": "owner",
          "type": "address"
        },
        {
          "indexed": true,
          "internalType": "address",
          "name": "operator",
          "type": "address"
        },
        {
          "indexed": false,
          "internalType": "bool",
          "name": "approved",
          "type": "bool"
        }
      ],
      "name": "ApprovalForAll",
      "type": "event"
    },
    {
      "anonymous": false,
      "inputs": [
        {
          "indexed": false,
          "internalType": "address",
          "name": "from",
          "type": "address"
        },
        {
          "indexed": false,
          "internalType": "address",
          "name": "to",
          "type": "address"
        },
        {
          "indexed": false,
          "internalType": "uint256",
          "name": "tokenId",
          "type": "uint256"
        },
        {
          "indexed": false,
          "internalType": "uint256",
          "name": "price",
          "type": "uint256"
        }
      ],
      "name": "Mint",
      "type": "event"
    },
    {
      "anonymous": false,
      "inputs": [
        {
          "indexed": true,
          "internalType": "address",
          "name": "from",
          "type": "address"
        },
        {
          "indexed": true,
          "internalType": "address",
          "name": "to",
          "type": "address"
        },
        {
          "indexed": true,
          "internalType": "uint256",
          "name": "tokenId",
          "type": "uint256"
        }
      ],
      "name": "Transfer",
      "type": "event"
    },
    {
      "inputs": [
        {
          "internalType": "address",
          "name": "to",
          "type": "address"
        },
        {
          "internalType": "uint256",
          "name": "tokenId",
          "type": "uint256"
        }
      ],
      "name": "approve",
      "outputs": [],
      "stateMutability": "nonpayable",
      "type": "function"
    },
    {
      "inputs": [
        {
          "internalType": "address",
          "name": "owner",
          "type": "address"
        }
      ],
      "name": "balanceOf",
      "outputs": [
        {
          "internalType": "uint256",
          "name": "",
          "type": "uint256"
        }
      ],
      "stateMutability": "view",
      "type": "function"
    },
    {
      "inputs": [],
      "name": "baseURI",
      "outputs": [
        {
          "internalType": "string",
          "name": "",
          "type": "string"
        }
      ],
      "stateMutability": "view",
      "type": "function"
    },
    {
      "inputs": [
        {
          "internalType": "uint256",
          "name": "tokenId",
          "type": "uint256"
        }
      ],
      "name": "burn",
      "outputs": [],
      "stateMutability": "nonpayable",
      "type": "function"
    },
    {
      "inputs": [],
      "name": "g4alProxy",
      "outputs": [
        {
          "internalType": "contract G4ALProxy",
          "name": "",
          "type": "address"
        }
      ],
      "stateMutability": "view",
      "type": "function"
    },
    {
      "inputs": [
        {
          "internalType": "uint256",
          "name": "tokenId",
          "type": "uint256"
        }
      ],
      "name": "getApproved",
      "outputs": [
        {
          "internalType": "address",
          "name": "",
          "type": "address"
        }
      ],
      "stateMutability": "view",
      "type": "function"
    },
    {
      "inputs": [
        {
          "internalType": "uint256[]",
          "name": "rarities",
          "type": "uint256[]"
        }
      ],
      "name": "getMintingPricesByRarity",
      "outputs": [
        {
          "internalType": "uint256[]",
          "name": "",
          "type": "uint256[]"
        }
      ],
      "stateMutability": "view",
      "type": "function"
    },
    {
      "inputs": [
        {
          "internalType": "uint256[]",
          "name": "tokens",
          "type": "uint256[]"
        }
      ],
      "name": "getOwnersByTokens",
      "outputs": [
        {
          "internalType": "address[]",
          "name": "",
          "type": "address[]"
        }
      ],
      "stateMutability": "view",
      "type": "function"
    },
    {
      "inputs": [
        {
          "internalType": "address",
          "name": "owner",
          "type": "address"
        },
        {
          "internalType": "address",
          "name": "operator",
          "type": "address"
        }
      ],
      "name": "isApprovedForAll",
      "outputs": [
        {
          "internalType": "bool",
          "name": "",
          "type": "bool"
        }
      ],
      "stateMutability": "view",
      "type": "function"
    },
    {
      "inputs": [],
      "name": "name",
      "outputs": [
        {
          "internalType": "string",
          "name": "",
          "type": "string"
        }
      ],
      "stateMutability": "view",
      "type": "function"
    },
    {
      "inputs": [
        {
          "internalType": "uint256",
          "name": "tokenId",
          "type": "uint256"
        }
      ],
      "name": "ownerOf",
      "outputs": [
        {
          "internalType": "address",
          "name": "",
          "type": "address"
        }
      ],
      "stateMutability": "view",
      "type": "function"
    },
    {
      "inputs": [
        {
          "internalType": "uint256",
          "name": "",
          "type": "uint256"
        }
      ],
      "name": "prices",
      "outputs": [
        {
          "internalType": "uint256",
          "name": "",
          "type": "uint256"
        }
      ],
      "stateMutability": "view",
      "type": "function"
    },
    {
      "inputs": [
        {
          "internalType": "address",
          "name": "to",
          "type": "address"
        },
        {
          "internalType": "uint256",
          "name": "rarity",
          "type": "uint256"
        }
      ],
      "name": "safeMint",
      "outputs": [],
      "stateMutability": "nonpayable",
      "type": "function"
    },
    {
      "inputs": [
        {
          "internalType": "address",
          "name": "from",
          "type": "address"
        },
        {
          "internalType": "address",
          "name": "to",
          "type": "address"
        },
        {
          "internalType": "uint256",
          "name": "tokenId",
          "type": "uint256"
        }
      ],
      "name": "safeTransferFrom",
      "outputs": [],
      "stateMutability": "nonpayable",
      "type": "function"
    },
    {
      "inputs": [
        {
          "internalType": "address",
          "name": "from",
          "type": "address"
        },
        {
          "internalType": "address",
          "name": "to",
          "type": "address"
        },
        {
          "internalType": "uint256",
          "name": "tokenId",
          "type": "uint256"
        },
        {
          "internalType": "bytes",
          "name": "data",
          "type": "bytes"
        }
      ],
      "name": "safeTransferFrom",
      "outputs": [],
      "stateMutability": "nonpayable",
      "type": "function"
    },
    {
      "inputs": [
        {
          "internalType": "address",
          "name": "operator",
          "type": "address"
        },
        {
          "internalType": "bool",
          "name": "approved",
          "type": "bool"
        }
      ],
      "name": "setApprovalForAll",
      "outputs": [],
      "stateMutability": "nonpayable",
      "type": "function"
    },
    {
      "inputs": [
        {
          "internalType": "bytes4",
          "name": "interfaceId",
          "type": "bytes4"
        }
      ],
      "name": "supportsInterface",
      "outputs": [
        {
          "internalType": "bool",
          "name": "",
          "type": "bool"
        }
      ],
      "stateMutability": "view",
      "type": "function"
    },
    {
      "inputs": [],
      "name": "symbol",
      "outputs": [
        {
          "internalType": "string",
          "name": "",
          "type": "string"
        }
      ],
      "stateMutability": "view",
      "type": "function"
    },
    {
      "inputs": [
        {
          "internalType": "uint256",
          "name": "index",
          "type": "uint256"
        }
      ],
      "name": "tokenByIndex",
      "outputs": [
        {
          "internalType": "uint256",
          "name": "",
          "type": "uint256"
        }
      ],
      "stateMutability": "view",
      "type": "function"
    },
    {
      "inputs": [
        {
          "internalType": "address",
          "name": "owner",
          "type": "address"
        },
        {
          "internalType": "uint256",
          "name": "index",
          "type": "uint256"
        }
      ],
      "name": "tokenOfOwnerByIndex",
      "outputs": [
        {
          "internalType": "uint256",
          "name": "",
          "type": "uint256"
        }
      ],
      "stateMutability": "view",
      "type": "function"
    },
    {
      "inputs": [
        {
          "internalType": "uint256",
          "name": "tokenId",
          "type": "uint256"
        }
      ],
      "name": "tokenURI",
      "outputs": [
        {
          "internalType": "string",
          "name": "",
          "type": "string"
        }
      ],
      "stateMutability": "view",
      "type": "function"
    },
    {
      "inputs": [],
      "name": "totalSupply",
      "outputs": [
        {
          "internalType": "uint256",
          "name": "",
          "type": "uint256"
        }
      ],
      "stateMutability": "view",
      "type": "function"
    },
    {
      "inputs": [
        {
          "internalType": "address",
          "name": "from",
          "type": "address"
        },
        {
          "internalType": "address",
          "name": "to",
          "type": "address"
        },
        {
          "internalType": "uint256",
          "name": "tokenId",
          "type": "uint256"
        }
      ],
      "name": "transferFrom",
      "outputs": [],
      "stateMutability": "nonpayable",
      "type": "function"
    },
    {
      "inputs": [
        {
          "internalType": "string",
          "name": "_baseUri",
          "type": "string"
        }
      ],
      "name": "updateBaseURI",
      "outputs": [],
      "stateMutability": "nonpayable",
      "type": "function"
    },
    {
      "inputs": [
        {
          "internalType": "uint256",
          "name": "rarity",
          "type": "uint256"
        },
        {
          "internalType": "uint256",
          "name": "price",
          "type": "uint256"
        }
      ],
      "name": "updateMintingPrice",
      "outputs": [],
      "stateMutability": "nonpayable",
      "type": "function"
    }
  ],
  "bytecode": "0x60806040523480156200001157600080fd5b50604051620052c2380380620052c283398181016040528101906200003791906200031c565b6040518060400160405280601781526020017f456c656d656e74616c205261696465727320536b696c6c0000000000000000008152506040518060400160405280600781526020017f4552534b494c4c000000000000000000000000000000000000000000000000008152508160009081620000b49190620005cd565b508060019081620000c69190620005cd565b50505081600b60006101000a81548173ffffffffffffffffffffffffffffffffffffffff021916908373ffffffffffffffffffffffffffffffffffffffff16021790555080600c90816200011b9190620005cd565b505050620006b4565b6000604051905090565b600080fd5b600080fd5b600073ffffffffffffffffffffffffffffffffffffffff82169050919050565b6000620001658262000138565b9050919050565b620001778162000158565b81146200018357600080fd5b50565b60008151905062000197816200016c565b92915050565b600080fd5b600080fd5b6000601f19601f8301169050919050565b7f4e487b7100000000000000000000000000000000000000000000000000000000600052604160045260246000fd5b620001f282620001a7565b810181811067ffffffffffffffff82111715620002145762000213620001b8565b5b80604052505050565b60006200022962000124565b9050620002378282620001e7565b919050565b600067ffffffffffffffff8211156200025a5762000259620001b8565b5b6200026582620001a7565b9050602081019050919050565b60005b838110156200029257808201518184015260208101905062000275565b60008484015250505050565b6000620002b5620002af846200023c565b6200021d565b905082815260208101848484011115620002d457620002d3620001a2565b5b620002e184828562000272565b509392505050565b600082601f8301126200030157620003006200019d565b5b8151620003138482602086016200029e565b91505092915050565b600080604083850312156200033657620003356200012e565b5b6000620003468582860162000186565b925050602083015167ffffffffffffffff8111156200036a576200036962000133565b5b6200037885828601620002e9565b9150509250929050565b600081519050919050565b7f4e487b7100000000000000000000000000000000000000000000000000000000600052602260045260246000fd5b60006002820490506001821680620003d557607f821691505b602082108103620003eb57620003ea6200038d565b5b50919050565b60008190508160005260206000209050919050565b60006020601f8301049050919050565b600082821b905092915050565b600060088302620004557fffffffffffffffffffffffffffffffffffffffffffffffffffffffffffffffff8262000416565b62000461868362000416565b95508019841693508086168417925050509392505050565b6000819050919050565b6000819050919050565b6000620004ae620004a8620004a28462000479565b62000483565b62000479565b9050919050565b6000819050919050565b620004ca836200048d565b620004e2620004d982620004b5565b84845462000423565b825550505050565b600090565b620004f9620004ea565b62000506818484620004bf565b505050565b5b818110156200052e5762000522600082620004ef565b6001810190506200050c565b5050565b601f8211156200057d576200054781620003f1565b620005528462000406565b8101602085101562000562578190505b6200057a620005718562000406565b8301826200050b565b50505b505050565b600082821c905092915050565b6000620005a26000198460080262000582565b1980831691505092915050565b6000620005bd83836200058f565b9150826002028217905092915050565b620005d88262000382565b67ffffffffffffffff811115620005f457620005f3620001b8565b5b620006008254620003bc565b6200060d82828562000532565b600060209050601f83116001811462000645576000841562000630578287015190505b6200063c8582620005af565b865550620006ac565b601f1984166200065586620003f1565b60005b828110156200067f5784890151825560018201915060208501945060208101905062000658565b868310156200069f57848901516200069b601f8916826200058f565b8355505b6001600288020188555050505b505050505050565b614bfe80620006c46000396000f3fe608060405234801561001057600080fd5b50600436106101735760003560e01c80636c0360eb116100de578063a22cb46511610097578063bf80cb6a11610071578063bf80cb6a1461046e578063c87b56dd1461049e578063e646a149146104ce578063e985e9c5146104ea57610173565b8063a22cb46514610406578063b88d4fde14610422578063bc31c1c11461043e57610173565b80636c0360eb1461034457806370a082311461036257806372f7eb9914610392578063931688cb146103b057806395d89b41146103cc578063a1448194146103ea57610173565b80632f745c59116101305780632f745c591461024c57806342842e0e1461027c57806342966c68146102985780634f6ccce7146102b457806359c084b3146102e45780636352211e1461031457610173565b806301ffc9a71461017857806306fdde03146101a8578063081812fc146101c6578063095ea7b3146101f657806318160ddd1461021257806323b872dd14610230575b600080fd5b610192600480360381019061018d91906130fb565b61051a565b60405161019f9190613143565b60405180910390f35b6101b061052c565b6040516101bd91906131ee565b60405180910390f35b6101e060048036038101906101db9190613246565b6105be565b6040516101ed91906132b4565b60405180910390f35b610210600480360381019061020b91906132fb565b610604565b005b61021a61071b565b604051610227919061334a565b60405180910390f35b61024a60048036038101906102459190613365565b610728565b005b610266600480360381019061026191906132fb565b610788565b604051610273919061334a565b60405180910390f35b61029660048036038101906102919190613365565b61082d565b005b6102b260048036038101906102ad9190613246565b61084d565b005b6102ce60048036038101906102c99190613246565b6108a9565b6040516102db919061334a565b60405180910390f35b6102fe60048036038101906102f99190613500565b61091a565b60405161030b9190613607565b60405180910390f35b61032e60048036038101906103299190613246565b610a74565b60405161033b91906132b4565b60405180910390f35b61034c610afa565b60405161035991906131ee565b60405180910390f35b61037c60048036038101906103779190613629565b610b88565b604051610389919061334a565b60405180910390f35b61039a610c3f565b6040516103a791906136b5565b60405180910390f35b6103ca60048036038101906103c59190613785565b610c65565b005b6103d4610d76565b6040516103e191906131ee565b60405180910390f35b61040460048036038101906103ff91906132fb565b610e08565b005b610420600480360381019061041b91906137fa565b611273565b005b61043c600480360381019061043791906138db565b611289565b005b61045860048036038101906104539190613246565b6112eb565b604051610465919061334a565b60405180910390f35b61048860048036038101906104839190613500565b611303565b6040516104959190613a1c565b60405180910390f35b6104b860048036038101906104b39190613246565b6114d2565b6040516104c591906131ee565b60405180910390f35b6104e860048036038101906104e39190613a3e565b61153a565b005b61050460048036038101906104ff9190613a7e565b611654565b6040516105119190613143565b60405180910390f35b6000610525826116e8565b9050919050565b60606000805461053b90613aed565b80601f016020809104026020016040519081016040528092919081815260200182805461056790613aed565b80156105b45780601f10610589576101008083540402835291602001916105b4565b820191906000526020600020905b81548152906001019060200180831161059757829003601f168201915b5050505050905090565b60006105c982611762565b6004600083815260200190815260200160002060009054906101000a900473ffffffffffffffffffffffffffffffffffffffff169050919050565b600061060f82610a74565b90508073ffffffffffffffffffffffffffffffffffffffff168373ffffffffffffffffffffffffffffffffffffffff160361067f576040517f08c379a000000000000000000000000000000000000000000000000000000000815260040161067690613b90565b60405180910390fd5b8073ffffffffffffffffffffffffffffffffffffffff1661069e6117ad565b73ffffffffffffffffffffffffffffffffffffffff1614806106cd57506106cc816106c76117ad565b611654565b5b61070c576040517f08c379a000000000000000000000000000000000000000000000000000000000815260040161070390613c22565b60405180910390fd5b61071683836117b5565b505050565b6000600880549050905090565b6107396107336117ad565b8261186e565b610778576040517f08c379a000000000000000000000000000000000000000000000000000000000815260040161076f90613cb4565b60405180910390fd5b610783838383611903565b505050565b600061079383610b88565b82106107d4576040517f08c379a00000000000000000000000000000000000000000000000000000000081526004016107cb90613d46565b60405180910390fd5b600660008473ffffffffffffffffffffffffffffffffffffffff1673ffffffffffffffffffffffffffffffffffffffff168152602001908152602001600020600083815260200190815260200160002054905092915050565b61084883838360405180602001604052806000815250611289565b505050565b61085e6108586117ad565b8261186e565b61089d576040517f08c379a000000000000000000000000000000000000000000000000000000000815260040161089490613cb4565b60405180910390fd5b6108a681611bfc565b50565b60006108b361071b565b82106108f4576040517f08c379a00000000000000000000000000000000000000000000000000000000081526004016108eb90613dd8565b60405180910390fd5b6008828154811061090857610907613df8565b5b90600052602060002001549050919050565b60606000825167ffffffffffffffff811115610939576109386133bd565b5b6040519080825280602002602001820160405280156109675781602001602082028036833780820191505090505b50905060005b8351811015610a6a573073ffffffffffffffffffffffffffffffffffffffff16636352211e8583815181106109a5576109a4613df8565b5b60200260200101516040518263ffffffff1660e01b81526004016109c9919061334a565b602060405180830381865afa1580156109e6573d6000803e3d6000fd5b505050506040513d601f19601f82011682018060405250810190610a0a9190613e3c565b828281518110610a1d57610a1c613df8565b5b602002602001019073ffffffffffffffffffffffffffffffffffffffff16908173ffffffffffffffffffffffffffffffffffffffff16815250508080610a6290613e98565b91505061096d565b5080915050919050565b600080610a8083611d4a565b9050600073ffffffffffffffffffffffffffffffffffffffff168173ffffffffffffffffffffffffffffffffffffffff1603610af1576040517f08c379a0000000000000000000000000000000000000000000000000000000008152600401610ae890613f2c565b60405180910390fd5b80915050919050565b600c8054610b0790613aed565b80601f0160208091040260200160405190810160405280929190818152602001828054610b3390613aed565b8015610b805780601f10610b5557610100808354040283529160200191610b80565b820191906000526020600020905b815481529060010190602001808311610b6357829003601f168201915b505050505081565b60008073ffffffffffffffffffffffffffffffffffffffff168273ffffffffffffffffffffffffffffffffffffffff1603610bf8576040517f08c379a0000000000000000000000000000000000000000000000000000000008152600401610bef90613fbe565b60405180910390fd5b600360008373ffffffffffffffffffffffffffffffffffffffff1673ffffffffffffffffffffffffffffffffffffffff168152602001908152602001600020549050919050565b600b60009054906101000a900473ffffffffffffffffffffffffffffffffffffffff1681565b600b60009054906101000a900473ffffffffffffffffffffffffffffffffffffffff1673ffffffffffffffffffffffffffffffffffffffff16638da5cb5b6040518163ffffffff1660e01b8152600401602060405180830381865afa158015610cd2573d6000803e3d6000fd5b505050506040513d601f19601f82011682018060405250810190610cf69190613e3c565b73ffffffffffffffffffffffffffffffffffffffff163373ffffffffffffffffffffffffffffffffffffffff1614610d63576040517f08c379a0000000000000000000000000000000000000000000000000000000008152600401610d5a9061402a565b60405180910390fd5b80600c9081610d7291906141ec565b5050565b606060018054610d8590613aed565b80601f0160208091040260200160405190810160405280929190818152602001828054610db190613aed565b8015610dfe5780601f10610dd357610100808354040283529160200191610dfe565b820191906000526020600020905b815481529060010190602001808311610de157829003601f168201915b5050505050905090565b600b60009054906101000a900473ffffffffffffffffffffffffffffffffffffffff1673ffffffffffffffffffffffffffffffffffffffff16638da5cb5b6040518163ffffffff1660e01b8152600401602060405180830381865afa158015610e75573d6000803e3d6000fd5b505050506040513d601f19601f82011682018060405250810190610e999190613e3c565b73ffffffffffffffffffffffffffffffffffffffff163373ffffffffffffffffffffffffffffffffffffffff1614610f06576040517f08c379a0000000000000000000000000000000000000000000000000000000008152600401610efd9061402a565b60405180910390fd5b6000600d600083815260200190815260200160002054141580610f605750600081148015610f5f57503373ffffffffffffffffffffffffffffffffffffffff168273ffffffffffffffffffffffffffffffffffffffff16145b5b610f9f576040517f08c379a0000000000000000000000000000000000000000000000000000000008152600401610f9690614330565b60405180910390fd5b6000600b60009054906101000a900473ffffffffffffffffffffffffffffffffffffffff1673ffffffffffffffffffffffffffffffffffffffff16636c84dd816040518163ffffffff1660e01b8152600401602060405180830381865afa15801561100e573d6000803e3d6000fd5b505050506040513d601f19601f820116820180604052508101906110329190613e3c565b73ffffffffffffffffffffffffffffffffffffffff16636e5b6b28600d6000858152602001908152602001600020546040518263ffffffff1660e01b815260040161107d919061334a565b602060405180830381865afa15801561109a573d6000803e3d6000fd5b505050506040513d601f19601f820116820180604052508101906110be9190614365565b905061120d83600b60009054906101000a900473ffffffffffffffffffffffffffffffffffffffff1673ffffffffffffffffffffffffffffffffffffffff1663c415b95c6040518163ffffffff1660e01b8152600401602060405180830381865afa158015611131573d6000803e3d6000fd5b505050506040513d601f19601f820116820180604052508101906111559190613e3c565b83600b60009054906101000a900473ffffffffffffffffffffffffffffffffffffffff1673ffffffffffffffffffffffffffffffffffffffff1663ade3e2d16040518163ffffffff1660e01b8152600401602060405180830381865afa1580156111c3573d6000803e3d6000fd5b505050506040513d601f19601f820116820180604052508101906111e79190613e3c565b73ffffffffffffffffffffffffffffffffffffffff16611d87909392919063ffffffff16565b6000611219600a611e10565b9050611225600a611e1e565b61122f8482611e34565b7f2f00e3cdd69a77be7ed215ec7b2a36784dd158f921fca79ac29deffa353fe6ee60008583856040516112659493929190614392565b60405180910390a150505050565b61128561127e6117ad565b8383611e52565b5050565b61129a6112946117ad565b8361186e565b6112d9576040517f08c379a00000000000000000000000000000000000000000000000000000000081526004016112d090613cb4565b60405180910390fd5b6112e584848484611fbe565b50505050565b600d6020528060005260406000206000915090505481565b60606000825167ffffffffffffffff811115611322576113216133bd565b5b6040519080825280602002602001820160405280156113505781602001602082028036833780820191505090505b50905060005b83518110156114c857600b60009054906101000a900473ffffffffffffffffffffffffffffffffffffffff1673ffffffffffffffffffffffffffffffffffffffff16636c84dd816040518163ffffffff1660e01b8152600401602060405180830381865afa1580156113cc573d6000803e3d6000fd5b505050506040513d601f19601f820116820180604052508101906113f09190613e3c565b73ffffffffffffffffffffffffffffffffffffffff16636e5b6b28600d600087858151811061142257611421613df8565b5b60200260200101518152602001908152602001600020546040518263ffffffff1660e01b8152600401611455919061334a565b602060405180830381865afa158015611472573d6000803e3d6000fd5b505050506040513d601f19601f820116820180604052508101906114969190614365565b8282815181106114a9576114a8613df8565b5b60200260200101818152505080806114c090613e98565b915050611356565b5080915050919050565b60606114dd82611762565b60006114e761201a565b905060008151116115075760405180602001604052806000815250611532565b80611511846120ac565b604051602001611522929190614413565b6040516020818303038152906040525b915050919050565b600b60009054906101000a900473ffffffffffffffffffffffffffffffffffffffff1673ffffffffffffffffffffffffffffffffffffffff16638da5cb5b6040518163ffffffff1660e01b8152600401602060405180830381865afa1580156115a7573d6000803e3d6000fd5b505050506040513d601f19601f820116820180604052508101906115cb9190613e3c565b73ffffffffffffffffffffffffffffffffffffffff163373ffffffffffffffffffffffffffffffffffffffff1614611638576040517f08c379a000000000000000000000000000000000000000000000000000000000815260040161162f9061402a565b60405180910390fd5b80600d6000848152602001908152602001600020819055505050565b6000600560008473ffffffffffffffffffffffffffffffffffffffff1673ffffffffffffffffffffffffffffffffffffffff16815260200190815260200160002060008373ffffffffffffffffffffffffffffffffffffffff1673ffffffffffffffffffffffffffffffffffffffff16815260200190815260200160002060009054906101000a900460ff16905092915050565b60007f780e9d63000000000000000000000000000000000000000000000000000000007bffffffffffffffffffffffffffffffffffffffffffffffffffffffff1916827bffffffffffffffffffffffffffffffffffffffffffffffffffffffff1916148061175b575061175a8261217a565b5b9050919050565b61176b8161225c565b6117aa576040517f08c379a00000000000000000000000000000000000000000000000000000000081526004016117a190613f2c565b60405180910390fd5b50565b600033905090565b816004600083815260200190815260200160002060006101000a81548173ffffffffffffffffffffffffffffffffffffffff021916908373ffffffffffffffffffffffffffffffffffffffff160217905550808273ffffffffffffffffffffffffffffffffffffffff1661182883610a74565b73ffffffffffffffffffffffffffffffffffffffff167f8c5be1e5ebec7d5bd14f71427d1e84f3dd0314c0f7b2291e5b200ac8c7c3b92560405160405180910390a45050565b60008061187a83610a74565b90508073ffffffffffffffffffffffffffffffffffffffff168473ffffffffffffffffffffffffffffffffffffffff1614806118bc57506118bb8185611654565b5b806118fa57508373ffffffffffffffffffffffffffffffffffffffff166118e2846105be565b73ffffffffffffffffffffffffffffffffffffffff16145b91505092915050565b8273ffffffffffffffffffffffffffffffffffffffff1661192382610a74565b73ffffffffffffffffffffffffffffffffffffffff1614611979576040517f08c379a0000000000000000000000000000000000000000000000000000000008152600401611970906144a9565b60405180910390fd5b600073ffffffffffffffffffffffffffffffffffffffff168273ffffffffffffffffffffffffffffffffffffffff16036119e8576040517f08c379a00000000000000000000000000000000000000000000000000000000081526004016119df9061453b565b60405180910390fd5b6119f5838383600161229d565b8273ffffffffffffffffffffffffffffffffffffffff16611a1582610a74565b73ffffffffffffffffffffffffffffffffffffffff1614611a6b576040517f08c379a0000000000000000000000000000000000000000000000000000000008152600401611a62906144a9565b60405180910390fd5b6004600082815260200190815260200160002060006101000a81549073ffffffffffffffffffffffffffffffffffffffff02191690556001600360008573ffffffffffffffffffffffffffffffffffffffff1673ffffffffffffffffffffffffffffffffffffffff168152602001908152602001600020600082825403925050819055506001600360008473ffffffffffffffffffffffffffffffffffffffff1673ffffffffffffffffffffffffffffffffffffffff16815260200190815260200160002060008282540192505081905550816002600083815260200190815260200160002060006101000a81548173ffffffffffffffffffffffffffffffffffffffff021916908373ffffffffffffffffffffffffffffffffffffffff160217905550808273ffffffffffffffffffffffffffffffffffffffff168473ffffffffffffffffffffffffffffffffffffffff167fddf252ad1be2c89b69c2b068fc378daa952ba7f163c4a11628f55a4df523b3ef60405160405180910390a4611bf783838360016122af565b505050565b6000611c0782610a74565b9050611c1781600084600161229d565b611c2082610a74565b90506004600083815260200190815260200160002060006101000a81549073ffffffffffffffffffffffffffffffffffffffff02191690556001600360008373ffffffffffffffffffffffffffffffffffffffff1673ffffffffffffffffffffffffffffffffffffffff168152602001908152602001600020600082825403925050819055506002600083815260200190815260200160002060006101000a81549073ffffffffffffffffffffffffffffffffffffffff021916905581600073ffffffffffffffffffffffffffffffffffffffff168273ffffffffffffffffffffffffffffffffffffffff167fddf252ad1be2c89b69c2b068fc378daa952ba7f163c4a11628f55a4df523b3ef60405160405180910390a4611d468160008460016122af565b5050565b60006002600083815260200190815260200160002060009054906101000a900473ffffffffffffffffffffffffffffffffffffffff169050919050565b611e0a846323b872dd60e01b858585604051602401611da89392919061455b565b604051602081830303815290604052907bffffffffffffffffffffffffffffffffffffffffffffffffffffffff19166020820180517bffffffffffffffffffffffffffffffffffffffffffffffffffffffff83818316178352505050506122b5565b50505050565b600081600001549050919050565b6001816000016000828254019250508190555050565b611e4e82826040518060200160405280600081525061237c565b5050565b8173ffffffffffffffffffffffffffffffffffffffff168373ffffffffffffffffffffffffffffffffffffffff1603611ec0576040517f08c379a0000000000000000000000000000000000000000000000000000000008152600401611eb7906145de565b60405180910390fd5b80600560008573ffffffffffffffffffffffffffffffffffffffff1673ffffffffffffffffffffffffffffffffffffffff16815260200190815260200160002060008473ffffffffffffffffffffffffffffffffffffffff1673ffffffffffffffffffffffffffffffffffffffff16815260200190815260200160002060006101000a81548160ff0219169083151502179055508173ffffffffffffffffffffffffffffffffffffffff168373ffffffffffffffffffffffffffffffffffffffff167f17307eab39ab6107e8899845ad3d59bd9653f200f220920489ca2b5937696c3183604051611fb19190613143565b60405180910390a3505050565b611fc9848484611903565b611fd5848484846123d7565b612014576040517f08c379a000000000000000000000000000000000000000000000000000000000815260040161200b90614670565b60405180910390fd5b50505050565b6060600c805461202990613aed565b80601f016020809104026020016040519081016040528092919081815260200182805461205590613aed565b80156120a25780601f10612077576101008083540402835291602001916120a2565b820191906000526020600020905b81548152906001019060200180831161208557829003601f168201915b5050505050905090565b6060600060016120bb8461255e565b01905060008167ffffffffffffffff8111156120da576120d96133bd565b5b6040519080825280601f01601f19166020018201604052801561210c5781602001600182028036833780820191505090505b509050600082602001820190505b60011561216f578080600190039150507f3031323334353637383961626364656600000000000000000000000000000000600a86061a8153600a858161216357612162614690565b5b0494506000850361211a575b819350505050919050565b60007f80ac58cd000000000000000000000000000000000000000000000000000000007bffffffffffffffffffffffffffffffffffffffffffffffffffffffff1916827bffffffffffffffffffffffffffffffffffffffffffffffffffffffff1916148061224557507f5b5e139f000000000000000000000000000000000000000000000000000000007bffffffffffffffffffffffffffffffffffffffffffffffffffffffff1916827bffffffffffffffffffffffffffffffffffffffffffffffffffffffff1916145b806122555750612254826126b1565b5b9050919050565b60008073ffffffffffffffffffffffffffffffffffffffff1661227e83611d4a565b73ffffffffffffffffffffffffffffffffffffffff1614159050919050565b6122a98484848461271b565b50505050565b50505050565b6000612317826040518060400160405280602081526020017f5361666545524332303a206c6f772d6c6576656c2063616c6c206661696c65648152508573ffffffffffffffffffffffffffffffffffffffff166128799092919063ffffffff16565b9050600081511115612377578080602001905181019061233791906146d4565b612376576040517f08c379a000000000000000000000000000000000000000000000000000000000815260040161236d90614773565b60405180910390fd5b5b505050565b6123868383612891565b61239360008484846123d7565b6123d2576040517f08c379a00000000000000000000000000000000000000000000000000000000081526004016123c990614670565b60405180910390fd5b505050565b60006123f88473ffffffffffffffffffffffffffffffffffffffff16612aae565b15612551578373ffffffffffffffffffffffffffffffffffffffff1663150b7a026124216117ad565b8786866040518563ffffffff1660e01b815260040161244394939291906147e8565b6020604051808303816000875af192505050801561247f57506040513d601f19601f8201168201806040525081019061247c9190614849565b60015b612501573d80600081146124af576040519150601f19603f3d011682016040523d82523d6000602084013e6124b4565b606091505b5060008151036124f9576040517f08c379a00000000000000000000000000000000000000000000000000000000081526004016124f090614670565b60405180910390fd5b805181602001fd5b63150b7a0260e01b7bffffffffffffffffffffffffffffffffffffffffffffffffffffffff1916817bffffffffffffffffffffffffffffffffffffffffffffffffffffffff191614915050612556565b600190505b949350505050565b600080600090507a184f03e93ff9f4daa797ed6e38ed64bf6a1f01000000000000000083106125bc577a184f03e93ff9f4daa797ed6e38ed64bf6a1f01000000000000000083816125b2576125b1614690565b5b0492506040810190505b6d04ee2d6d415b85acef810000000083106125f9576d04ee2d6d415b85acef810000000083816125ef576125ee614690565b5b0492506020810190505b662386f26fc10000831061262857662386f26fc10000838161261e5761261d614690565b5b0492506010810190505b6305f5e1008310612651576305f5e100838161264757612646614690565b5b0492506008810190505b612710831061267657612710838161266c5761266b614690565b5b0492506004810190505b60648310612699576064838161268f5761268e614690565b5b0492506002810190505b600a83106126a8576001810190505b80915050919050565b60007f01ffc9a7000000000000000000000000000000000000000000000000000000007bffffffffffffffffffffffffffffffffffffffffffffffffffffffff1916827bffffffffffffffffffffffffffffffffffffffffffffffffffffffff1916149050919050565b61272784848484612ad1565b600181111561276b576040517f08c379a0000000000000000000000000000000000000000000000000000000008152600401612762906148e8565b60405180910390fd5b6000829050600073ffffffffffffffffffffffffffffffffffffffff168573ffffffffffffffffffffffffffffffffffffffff16036127b2576127ad81612bf7565b6127f1565b8373ffffffffffffffffffffffffffffffffffffffff168573ffffffffffffffffffffffffffffffffffffffff16146127f0576127ef8582612c40565b5b5b600073ffffffffffffffffffffffffffffffffffffffff168473ffffffffffffffffffffffffffffffffffffffff16036128335761282e81612dad565b612872565b8473ffffffffffffffffffffffffffffffffffffffff168473ffffffffffffffffffffffffffffffffffffffff1614612871576128708482612e7e565b5b5b5050505050565b60606128888484600085612efd565b90509392505050565b600073ffffffffffffffffffffffffffffffffffffffff168273ffffffffffffffffffffffffffffffffffffffff1603612900576040517f08c379a00000000000000000000000000000000000000000000000000000000081526004016128f790614954565b60405180910390fd5b6129098161225c565b15612949576040517f08c379a0000000000000000000000000000000000000000000000000000000008152600401612940906149c0565b60405180910390fd5b61295760008383600161229d565b6129608161225c565b156129a0576040517f08c379a0000000000000000000000000000000000000000000000000000000008152600401612997906149c0565b60405180910390fd5b6001600360008473ffffffffffffffffffffffffffffffffffffffff1673ffffffffffffffffffffffffffffffffffffffff16815260200190815260200160002060008282540192505081905550816002600083815260200190815260200160002060006101000a81548173ffffffffffffffffffffffffffffffffffffffff021916908373ffffffffffffffffffffffffffffffffffffffff160217905550808273ffffffffffffffffffffffffffffffffffffffff16600073ffffffffffffffffffffffffffffffffffffffff167fddf252ad1be2c89b69c2b068fc378daa952ba7f163c4a11628f55a4df523b3ef60405160405180910390a4612aaa6000838360016122af565b5050565b6000808273ffffffffffffffffffffffffffffffffffffffff163b119050919050565b6001811115612bf157600073ffffffffffffffffffffffffffffffffffffffff168473ffffffffffffffffffffffffffffffffffffffff1614612b655780600360008673ffffffffffffffffffffffffffffffffffffffff1673ffffffffffffffffffffffffffffffffffffffff1681526020019081526020016000206000828254612b5d91906149e0565b925050819055505b600073ffffffffffffffffffffffffffffffffffffffff168373ffffffffffffffffffffffffffffffffffffffff1614612bf05780600360008573ffffffffffffffffffffffffffffffffffffffff1673ffffffffffffffffffffffffffffffffffffffff1681526020019081526020016000206000828254612be89190614a14565b925050819055505b5b50505050565b6008805490506009600083815260200190815260200160002081905550600881908060018154018082558091505060019003906000526020600020016000909190919091505550565b60006001612c4d84610b88565b612c5791906149e0565b9050600060076000848152602001908152602001600020549050818114612d3c576000600660008673ffffffffffffffffffffffffffffffffffffffff1673ffffffffffffffffffffffffffffffffffffffff168152602001908152602001600020600084815260200190815260200160002054905080600660008773ffffffffffffffffffffffffffffffffffffffff1673ffffffffffffffffffffffffffffffffffffffff168152602001908152602001600020600084815260200190815260200160002081905550816007600083815260200190815260200160002081905550505b6007600084815260200190815260200160002060009055600660008573ffffffffffffffffffffffffffffffffffffffff1673ffffffffffffffffffffffffffffffffffffffff16815260200190815260200160002060008381526020019081526020016000206000905550505050565b60006001600880549050612dc191906149e0565b9050600060096000848152602001908152602001600020549050600060088381548110612df157612df0613df8565b5b906000526020600020015490508060088381548110612e1357612e12613df8565b5b906000526020600020018190555081600960008381526020019081526020016000208190555060096000858152602001908152602001600020600090556008805480612e6257612e61614a48565b5b6001900381819060005260206000200160009055905550505050565b6000612e8983610b88565b905081600660008573ffffffffffffffffffffffffffffffffffffffff1673ffffffffffffffffffffffffffffffffffffffff168152602001908152602001600020600083815260200190815260200160002081905550806007600084815260200190815260200160002081905550505050565b606082471015612f42576040517f08c379a0000000000000000000000000000000000000000000000000000000008152600401612f3990614ae9565b60405180910390fd5b6000808673ffffffffffffffffffffffffffffffffffffffff168587604051612f6b9190614b45565b60006040518083038185875af1925050503d8060008114612fa8576040519150601f19603f3d011682016040523d82523d6000602084013e612fad565b606091505b5091509150612fbe87838387612fca565b92505050949350505050565b6060831561302c57600083510361302457612fe485612aae565b613023576040517f08c379a000000000000000000000000000000000000000000000000000000000815260040161301a90614ba8565b60405180910390fd5b5b829050613037565b613036838361303f565b5b949350505050565b6000825111156130525781518083602001fd5b806040517f08c379a000000000000000000000000000000000000000000000000000000000815260040161308691906131ee565b60405180910390fd5b6000604051905090565b600080fd5b600080fd5b60007fffffffff0000000000000000000000000000000000000000000000000000000082169050919050565b6130d8816130a3565b81146130e357600080fd5b50565b6000813590506130f5816130cf565b92915050565b60006020828403121561311157613110613099565b5b600061311f848285016130e6565b91505092915050565b60008115159050919050565b61313d81613128565b82525050565b60006020820190506131586000830184613134565b92915050565b600081519050919050565b600082825260208201905092915050565b60005b8381101561319857808201518184015260208101905061317d565b60008484015250505050565b6000601f19601f8301169050919050565b60006131c08261315e565b6131ca8185613169565b93506131da81856020860161317a565b6131e3816131a4565b840191505092915050565b6000602082019050818103600083015261320881846131b5565b905092915050565b6000819050919050565b61322381613210565b811461322e57600080fd5b50565b6000813590506132408161321a565b92915050565b60006020828403121561325c5761325b613099565b5b600061326a84828501613231565b91505092915050565b600073ffffffffffffffffffffffffffffffffffffffff82169050919050565b600061329e82613273565b9050919050565b6132ae81613293565b82525050565b60006020820190506132c960008301846132a5565b92915050565b6132d881613293565b81146132e357600080fd5b50565b6000813590506132f5816132cf565b92915050565b6000806040838503121561331257613311613099565b5b6000613320858286016132e6565b925050602061333185828601613231565b9150509250929050565b61334481613210565b82525050565b600060208201905061335f600083018461333b565b92915050565b60008060006060848603121561337e5761337d613099565b5b600061338c868287016132e6565b935050602061339d868287016132e6565b92505060406133ae86828701613231565b9150509250925092565b600080fd5b7f4e487b7100000000000000000000000000000000000000000000000000000000600052604160045260246000fd5b6133f5826131a4565b810181811067ffffffffffffffff82111715613414576134136133bd565b5b80604052505050565b600061342761308f565b905061343382826133ec565b919050565b600067ffffffffffffffff821115613453576134526133bd565b5b602082029050602081019050919050565b600080fd5b600061347c61347784613438565b61341d565b9050808382526020820190506020840283018581111561349f5761349e613464565b5b835b818110156134c857806134b48882613231565b8452602084019350506020810190506134a1565b5050509392505050565b600082601f8301126134e7576134e66133b8565b5b81356134f7848260208601613469565b91505092915050565b60006020828403121561351657613515613099565b5b600082013567ffffffffffffffff8111156135345761353361309e565b5b613540848285016134d2565b91505092915050565b600081519050919050565b600082825260208201905092915050565b6000819050602082019050919050565b61357e81613293565b82525050565b60006135908383613575565b60208301905092915050565b6000602082019050919050565b60006135b482613549565b6135be8185613554565b93506135c983613565565b8060005b838110156135fa5781516135e18882613584565b97506135ec8361359c565b9250506001810190506135cd565b5085935050505092915050565b6000602082019050818103600083015261362181846135a9565b905092915050565b60006020828403121561363f5761363e613099565b5b600061364d848285016132e6565b91505092915050565b6000819050919050565b600061367b61367661367184613273565b613656565b613273565b9050919050565b600061368d82613660565b9050919050565b600061369f82613682565b9050919050565b6136af81613694565b82525050565b60006020820190506136ca60008301846136a6565b92915050565b600080fd5b600067ffffffffffffffff8211156136f0576136ef6133bd565b5b6136f9826131a4565b9050602081019050919050565b82818337600083830152505050565b6000613728613723846136d5565b61341d565b905082815260208101848484011115613744576137436136d0565b5b61374f848285613706565b509392505050565b600082601f83011261376c5761376b6133b8565b5b813561377c848260208601613715565b91505092915050565b60006020828403121561379b5761379a613099565b5b600082013567ffffffffffffffff8111156137b9576137b861309e565b5b6137c584828501613757565b91505092915050565b6137d781613128565b81146137e257600080fd5b50565b6000813590506137f4816137ce565b92915050565b6000806040838503121561381157613810613099565b5b600061381f858286016132e6565b9250506020613830858286016137e5565b9150509250929050565b600067ffffffffffffffff821115613855576138546133bd565b5b61385e826131a4565b9050602081019050919050565b600061387e6138798461383a565b61341d565b90508281526020810184848401111561389a576138996136d0565b5b6138a5848285613706565b509392505050565b600082601f8301126138c2576138c16133b8565b5b81356138d284826020860161386b565b91505092915050565b600080600080608085870312156138f5576138f4613099565b5b6000613903878288016132e6565b9450506020613914878288016132e6565b935050604061392587828801613231565b925050606085013567ffffffffffffffff8111156139465761394561309e565b5b613952878288016138ad565b91505092959194509250565b600081519050919050565b600082825260208201905092915050565b6000819050602082019050919050565b61399381613210565b82525050565b60006139a5838361398a565b60208301905092915050565b6000602082019050919050565b60006139c98261395e565b6139d38185613969565b93506139de8361397a565b8060005b83811015613a0f5781516139f68882613999565b9750613a01836139b1565b9250506001810190506139e2565b5085935050505092915050565b60006020820190508181036000830152613a3681846139be565b905092915050565b60008060408385031215613a5557613a54613099565b5b6000613a6385828601613231565b9250506020613a7485828601613231565b9150509250929050565b60008060408385031215613a9557613a94613099565b5b6000613aa3858286016132e6565b9250506020613ab4858286016132e6565b9150509250929050565b7f4e487b7100000000000000000000000000000000000000000000000000000000600052602260045260246000fd5b60006002820490506001821680613b0557607f821691505b602082108103613b1857613b17613abe565b5b50919050565b7f4552433732313a20617070726f76616c20746f2063757272656e74206f776e6560008201527f7200000000000000000000000000000000000000000000000000000000000000602082015250565b6000613b7a602183613169565b9150613b8582613b1e565b604082019050919050565b60006020820190508181036000830152613ba981613b6d565b9050919050565b7f4552433732313a20617070726f76652063616c6c6572206973206e6f7420746f60008201527f6b656e206f776e6572206f7220617070726f76656420666f7220616c6c000000602082015250565b6000613c0c603d83613169565b9150613c1782613bb0565b604082019050919050565b60006020820190508181036000830152613c3b81613bff565b9050919050565b7f4552433732313a2063616c6c6572206973206e6f7420746f6b656e206f776e6560008201527f72206f7220617070726f76656400000000000000000000000000000000000000602082015250565b6000613c9e602d83613169565b9150613ca982613c42565b604082019050919050565b60006020820190508181036000830152613ccd81613c91565b9050919050565b7f455243373231456e756d657261626c653a206f776e657220696e646578206f7560008201527f74206f6620626f756e6473000000000000000000000000000000000000000000602082015250565b6000613d30602b83613169565b9150613d3b82613cd4565b604082019050919050565b60006020820190508181036000830152613d5f81613d23565b9050919050565b7f455243373231456e756d657261626c653a20676c6f62616c20696e646578206f60008201527f7574206f6620626f756e64730000000000000000000000000000000000000000602082015250565b6000613dc2602c83613169565b9150613dcd82613d66565b604082019050919050565b60006020820190508181036000830152613df181613db5565b9050919050565b7f4e487b7100000000000000000000000000000000000000000000000000000000600052603260045260246000fd5b600081519050613e36816132cf565b92915050565b600060208284031215613e5257613e51613099565b5b6000613e6084828501613e27565b91505092915050565b7f4e487b7100000000000000000000000000000000000000000000000000000000600052601160045260246000fd5b6000613ea382613210565b91507fffffffffffffffffffffffffffffffffffffffffffffffffffffffffffffffff8203613ed557613ed4613e69565b5b600182019050919050565b7f4552433732313a20696e76616c696420746f6b656e2049440000000000000000600082015250565b6000613f16601883613169565b9150613f2182613ee0565b602082019050919050565b60006020820190508181036000830152613f4581613f09565b9050919050565b7f4552433732313a2061646472657373207a65726f206973206e6f74206120766160008201527f6c6964206f776e65720000000000000000000000000000000000000000000000602082015250565b6000613fa8602983613169565b9150613fb382613f4c565b604082019050919050565b60006020820190508181036000830152613fd781613f9b565b9050919050565b7f4e6f74206f776e65720000000000000000000000000000000000000000000000600082015250565b6000614014600983613169565b915061401f82613fde565b602082019050919050565b6000602082019050818103600083015261404381614007565b9050919050565b60008190508160005260206000209050919050565b60006020601f8301049050919050565b600082821b905092915050565b6000600883026140ac7fffffffffffffffffffffffffffffffffffffffffffffffffffffffffffffffff8261406f565b6140b6868361406f565b95508019841693508086168417925050509392505050565b60006140e96140e46140df84613210565b613656565b613210565b9050919050565b6000819050919050565b614103836140ce565b61411761410f826140f0565b84845461407c565b825550505050565b600090565b61412c61411f565b6141378184846140fa565b505050565b5b8181101561415b57614150600082614124565b60018101905061413d565b5050565b601f8211156141a0576141718161404a565b61417a8461405f565b81016020851015614189578190505b61419d6141958561405f565b83018261413c565b50505b505050565b600082821c905092915050565b60006141c3600019846008026141a5565b1980831691505092915050565b60006141dc83836141b2565b9150826002028217905092915050565b6141f58261315e565b67ffffffffffffffff81111561420e5761420d6133bd565b5b6142188254613aed565b61422382828561415f565b600060209050601f8311600181146142565760008415614244578287015190505b61424e85826141d0565b8655506142b6565b601f1984166142648661404a565b60005b8281101561428c57848901518255600182019150602085019450602081019050614267565b868310156142a957848901516142a5601f8916826141b2565b8355505b6001600288020188555050505b505050505050565b7f4d696e74696e67203020707269636520746f6b656e73206973206e6f7420616c60008201527f6c6f776564000000000000000000000000000000000000000000000000000000602082015250565b600061431a602583613169565b9150614325826142be565b604082019050919050565b600060208201905081810360008301526143498161430d565b9050919050565b60008151905061435f8161321a565b92915050565b60006020828403121561437b5761437a613099565b5b600061438984828501614350565b91505092915050565b60006080820190506143a760008301876132a5565b6143b460208301866132a5565b6143c1604083018561333b565b6143ce606083018461333b565b95945050505050565b600081905092915050565b60006143ed8261315e565b6143f781856143d7565b935061440781856020860161317a565b80840191505092915050565b600061441f82856143e2565b915061442b82846143e2565b91508190509392505050565b7f4552433732313a207472616e736665722066726f6d20696e636f72726563742060008201527f6f776e6572000000000000000000000000000000000000000000000000000000602082015250565b6000614493602583613169565b915061449e82614437565b604082019050919050565b600060208201905081810360008301526144c281614486565b9050919050565b7f4552433732313a207472616e7366657220746f20746865207a65726f2061646460008201527f7265737300000000000000000000000000000000000000000000000000000000602082015250565b6000614525602483613169565b9150614530826144c9565b604082019050919050565b6000602082019050818103600083015261455481614518565b9050919050565b600060608201905061457060008301866132a5565b61457d60208301856132a5565b61458a604083018461333b565b949350505050565b7f4552433732313a20617070726f766520746f2063616c6c657200000000000000600082015250565b60006145c8601983613169565b91506145d382614592565b602082019050919050565b600060208201905081810360008301526145f7816145bb565b9050919050565b7f4552433732313a207472616e7366657220746f206e6f6e20455243373231526560008201527f63656976657220696d706c656d656e7465720000000000000000000000000000602082015250565b600061465a603283613169565b9150614665826145fe565b604082019050919050565b600060208201905081810360008301526146898161464d565b9050919050565b7f4e487b7100000000000000000000000000000000000000000000000000000000600052601260045260246000fd5b6000815190506146ce816137ce565b92915050565b6000602082840312156146ea576146e9613099565b5b60006146f8848285016146bf565b91505092915050565b7f5361666545524332303a204552433230206f7065726174696f6e20646964206e60008201527f6f74207375636365656400000000000000000000000000000000000000000000602082015250565b600061475d602a83613169565b915061476882614701565b604082019050919050565b6000602082019050818103600083015261478c81614750565b9050919050565b600081519050919050565b600082825260208201905092915050565b60006147ba82614793565b6147c4818561479e565b93506147d481856020860161317a565b6147dd816131a4565b840191505092915050565b60006080820190506147fd60008301876132a5565b61480a60208301866132a5565b614817604083018561333b565b818103606083015261482981846147af565b905095945050505050565b600081519050614843816130cf565b92915050565b60006020828403121561485f5761485e613099565b5b600061486d84828501614834565b91505092915050565b7f455243373231456e756d657261626c653a20636f6e736563757469766520747260008201527f616e7366657273206e6f7420737570706f727465640000000000000000000000602082015250565b60006148d2603583613169565b91506148dd82614876565b604082019050919050565b60006020820190508181036000830152614901816148c5565b9050919050565b7f4552433732313a206d696e7420746f20746865207a65726f2061646472657373600082015250565b600061493e602083613169565b915061494982614908565b602082019050919050565b6000602082019050818103600083015261496d81614931565b9050919050565b7f4552433732313a20746f6b656e20616c7265616479206d696e74656400000000600082015250565b60006149aa601c83613169565b91506149b582614974565b602082019050919050565b600060208201905081810360008301526149d98161499d565b9050919050565b60006149eb82613210565b91506149f683613210565b9250828203905081811115614a0e57614a0d613e69565b5b92915050565b6000614a1f82613210565b9150614a2a83613210565b9250828201905080821115614a4257614a41613e69565b5b92915050565b7f4e487b7100000000000000000000000000000000000000000000000000000000600052603160045260246000fd5b7f416464726573733a20696e73756666696369656e742062616c616e636520666f60008201527f722063616c6c0000000000000000000000000000000000000000000000000000602082015250565b6000614ad3602683613169565b9150614ade82614a77565b604082019050919050565b60006020820190508181036000830152614b0281614ac6565b9050919050565b600081905092915050565b6000614b1f82614793565b614b298185614b09565b9350614b3981856020860161317a565b80840191505092915050565b6000614b518284614b14565b915081905092915050565b7f416464726573733a2063616c6c20746f206e6f6e2d636f6e7472616374000000600082015250565b6000614b92601d83613169565b9150614b9d82614b5c565b602082019050919050565b60006020820190508181036000830152614bc181614b85565b905091905056fea2646970667358221220532233e339b1fe435744ff7e9aad6b8b04ca5f9b169971655e07e9600f61477364736f6c63430008130033",
  "linkReferences": {},
  "deployedLinkReferences": {}
}